:020000040800F2
:10000000481F002065010008A9350008AB3500082D
:10001000B5350008BF350008C935000800000000EC
:10002000000000000000000000000000D3350008C0
:10003000D535000800000000D73500081B57000820
:100040007F0100087F0100087F0100087F01000890
:100050007F0100087F0100087F0100087F01000880
:100060007F0100083F550008975500087F010008F0
:100070007F0100087F0100087F0100087F01000860
:100080007F0100087F0100087F0100087F01000850
:10009000D93500087F0100087F010008EF550008EE
:1000A0007F0100087F0100087F0100087F01000830
:1000B0007F0100087B4E00087F010008BB4B000851
:1000C000D1470008CB4B0008C34B00087F01000854
:1000D0007F010008F38700087F0100087F01000806
:1000E0007F0100087F010008E13500087F0100085A
:1000F000F14D00087F0100087F0100087F01000822
:100100007F0100087F010008054F00087F010008FB
:100110009D5E00087F0100087F0100087F01000844
:100120007F0100087F0100087F0100087F010008AF
:10013000DFF80CD009F09CF800480047890100085E
:10014000481F0020EFF30980704780F3098870474B
:10015000EFF30880704780F30888704740BA704713
:10016000C0BA70470648804706480047FEE7FEE7EA
:10017000FEE7FEE7FEE7FEE7FEE7FEE7FEE7FEE757
:100180007F27000831010008002405F07EFB02F003
:1001900015FE01200649087009E0214605A004F07B
:1001A000A7F94FF47A7008F09CFA601CC4B2F4E727
:1001B0009C0100206865617274206265617420256D
:1001C000640D0A00DF48006840F00100DD49086066
:1001D00008464068DC490840DA494860084600683B
:1001E000DA490840D74908600846006820F48020B2
:1001F00008600846406820F4FE0048604FF41F0085
:1002000088607047CF49096821F48031CD4A116078
:100210001146096821F480211160B0F5803F03D0B8
:10022000B0F5802F0ED106E0C649096841F480314F
:10023000C44A116007E0C349096841F4A021C14ADA
:10024000116000E000BF00BF704710B501460022FA
:10025000002300204A11012A02D1BA4C236806E08B
:10026000022A02D1B74C236A01E0B64C636A01F05E
:100270001F02012494401C400CB1012000E000202A
:1002800010BD38B5002000900024002500BF3120AB
:10029000FFF7DBFF05460098401C00900098B0F582
:1002A000A06F01D0002DF2D03120FFF7CEFF08B1B2
:1002B000012400E00024204638BD01460020A14A68
:1002C000106820F0F80040EAC10010607047A049B3
:1002D00008607047024600209A4B586820F47C1052
:1002E00042EA01031843974B5860704798490866E3
:1002F000704701460020934A506820F003000843ED
:10030000506070478F48406800F00C00704701460D
:1003100000208C4A506820F0F0000843506070477D
:1003200001460020874A506820F4E060084350608E
:10033000704701460020834A506820F4605040EA2C
:10034000C1005060704729B17E4A527A02437D4B0A
:100350005A7204E07B4A527A82437A4B5A7270474F
:100360007B49D8310860704701460020754A5068C3
:1003700020F440400843506070470021714A203209
:100380001170704A82F82010012802D004280AD186
:1003900004E001216B4A2032117005E00521694A11
:1003A0002032117000E000BF00BF7047694908604B
:1003B00070476449096A0143624A1162704765499E
:1003C00044390860704730B5002100220024002322
:1003D0005C4D6D6805F00C0121B1042905D0082998
:1003E00023D105E05C4D056022E05B4D05601FE018
:1003F000544D6D6805F47012524D6D6805F48034EB
:10040000022505EB92421CB9544D554305600BE0A3
:100410004C4D6D6805F400351DB1504D55430560D8
:1004200002E04D4D5543056002E04B4D056000BFB5
:1004300000BF444D6D6805F0F0010909484D6B5C43
:100440000568DD4045603F4D6D6805F4E061090ACF
:10045000434D6B5C4568DD4085603A4D6D6805F441
:100460006051C90A3E4D6B5C4568DD40C560354D45
:100470006D6805F44041890B3A4D6B5CC568B5FB6E
:10048000F3F5056130BD29B12E4A526902432D4B67
:100490005A6104E02B4A526982432A4B5A617047E1
:1004A00029B1284A92690243264B9A6104E0254A01
:1004B00092698243234B9A61704729B1214AD269DC
:1004C0000243204BDA6104E01E4AD26982431D4B8D
:1004D000DA61704729B11B4AD2680243194BDA60CE
:1004E00004E0184AD2688243164BDA60704729B19B
:1004F000144A12690243134B1A6104E0114A12694B
:100500008243104B1A6170471249403908607047A6
:100510000F49C86470470B49C87170470948406A61
:1005200040F0807007494862704701460020054A44
:1005300092680A400AB1012000E00020704701499A
:1005400088727047001002400000FFF8FFFFF6FEBF
:10055000000042428004424200127A0000093D003D
:100560000A0000201A00002010B50446CC4884423E
:1005700008D101210420FFF7ADFF00210420FFF77F
:10058000A9FF46E0C748844208D101210820FFF7AF
:10059000A1FF00210820FFF79DFF3AE0C2488442F6
:1005A00008D101211020FFF795FF00211020FFF74F
:1005B00091FF2EE0BD48844208D101212020FFF7A1
:1005C00089FF00212020FFF785FF22E0B848844200
:1005D00008D101214020FFF77DFF00214020FFF7D7
:1005E00079FF16E0B348844208D101218020FFF74B
:1005F00071FF00218020FFF76DFF0AE0AE488442C2
:1006000007D101218015FFF765FF0021A015FFF735
:1006100061FF10BD10B501210846FFF75BFF002107
:100620000120FFF757FF10BD2DE9F04102460025DC
:100630000026002000230024002791F803C00CF0BE
:100640000F0591F803C00CF0100CBCF1000F03D0A3
:1006500091F802C04CEA050591F800C0BCF1000F0A
:1006600031D0146800202BE04FF0010C0CFA00F39D
:10067000B1F800C00CEA03069E4220D183004FF07F
:100680000F0C0CFA03F7BC4305FA03FC4CEA040414
:1006900091F803C0BCF1280F06D14FF0010C0CFA01
:1006A00000FCC2F814C00AE091F803C0BCF1480F86
:1006B00005D14FF0010C0CFA00FCC2F810C0401C30
:1006C0000828D1D31460B1F800C0BCF1FF0F34DDAD
:1006D000546800202EE000F1080C4FF0010808FAE1
:1006E0000CF3B1F800C00CEA03069E4221D183004E
:1006F0004FF00F0C0CFA03F7BC4305FA03FC4CEA6D
:10070000040491F803C0BCF1280F05D100F1080CD6
:1007100008FA0CF8C2F8148091F803C0BCF1480F35
:1007200007D100F1080C4FF0010808FA0CF8C2F8E4
:100730001080401C0828CED35460BDE8F0814FF6ED
:10074000FF710180022181700421C170704702464F
:10075000002093680B400BB1012000E0002070479F
:100760000146886880B2704702460020D3680B407B
:100770000BB1012000E0002070470146C86880B23C
:10078000704701617047416170470AB1016100E043
:1007900041617047C16070474FF480320A43826103
:1007A0008161826182698269704702460020434B01
:1007B00018684FF68073184040EA021008433F4B18
:1007C000186070473E49C8617047F0B50A4600237B
:1007D00000240021002500F00046B6F1004F02D1B0
:1007E000364EF16901E0354E7168C0F3034583B2BE
:1007F00000F44016B6F5401F08D121F070612F4E6D
:10080000766826F070662D4F7E6012E000F4801648
:10081000B6F5801F06D1032606FA05F4A14341F080
:10082000706106E0460D360103FA06F6B14341F069
:10083000706122B1460D360103FA06F6314300F02D
:100840000046B6F1004F02D11C4EF16101E01B4E93
:100850007160F0BD30B500228B071C0F0F2303FA27
:1008600004F2164B08338C1053F824309343134C86
:1008700008348D1044F8253023468C1053F824306A
:100880008C07240F00FA04F423430C4C08348D1019
:1008900044F8253030BD0A49DC310860704700005B
:1008A00000080140000C014000100140001401400C
:1008B00000180140001C01400020014000000140E0
:1008C0000000204210B50446FB48844209D10121B2
:1008D0008803FFF7FFFD00214FF48040FFF7FAFD8A
:1008E00032E0F648844209D101214804FFF7FFFDB8
:1008F00000214FF40030FFF7FAFD25E0F048844274
:1009000009D101218804FFF7F2FD00214FF4802076
:10091000FFF7EDFD18E0EB48844209D10121C8043E
:10092000FFF7E5FD00214FF40020FFF7E0FD0BE0AD
:10093000E548844208D101210805FFF7D8FD0021D0
:100940004FF48010FFF7D3FD10BD2DE9F04786B0BE
:1009500005460E460024A24600BFA1460027B089E6
:1009600000B100BF2F462C8A4CF6FF700440F0887F
:1009700004432C82AC894EF6F3100440B0883189D0
:100980000843718908430443AC81AC8A4FF6FF40A9
:100990000440B0890443AC8201A8FFF714FDC648A7
:1009A000874202D1DDF810A001E0DDF80CA0A88993
:1009B00000F4004040B10AEBCA0000EB0A103168B5
:1009C0004900B0FBF1F807E00AEBCA0000EB0A109F
:1009D00031688900B0FBF1F86420B8FBF0F0040145
:1009E0002009642101FB1089A88900F4004040B16E
:1009F000322000EBC900B0FBF1F000F00700044327
:100A000008E0322000EB09106421B0FBF1F000F0A7
:100A10000F0004432C8106B0BDE8F0874FF4165157
:100A2000016000218180C18001810C214181002170
:100A30008181704710B502460020108A4FF2FF03F3
:100A400018400B884C8823438C882343CC8823434D
:100A50001843108210BD0021018041808180C18037
:100A6000704721B1828942F40052828104E0828978
:100A70004DF6FF731A4082817047F0B5034600249B
:100A800000260025002040F66A17B94200D100BFB9
:100A90001846C1F3421401F01F06012707FA06F5B4
:100AA000012C01D10C3004E0022C01D1103000E007
:100AB00014301AB107682F43076002E00768AF439C
:100AC0000760F0BD1AB1838A0B43838202E0838AF8
:100AD0008B4383827047028A4FF6F0731A4002827A
:100AE000028A0A430282704782894FF2FF731A40DA
:100AF000828182890A438281704721B1828942F0D2
:100B00000202828104E082894FF6FD731A408281DD
:100B10007047028A4FF6DF731A400282028A0A4344
:100B20000282704721B1028A42F48042028204E0CC
:100B3000028A4BF6FF731A4002827047C1F3080223
:100B40008280704701468888C0F308007047818919
:100B500041F0010181817047028BD2B20283028B86
:100B600042EA012202837047028B02F47F42028331
:100B7000028B0A430283704721B1828A42F020022D
:100B8000828204E0828A4FF6DF731A4082827047C5
:100B900021B1828A42F01002828204E0828A4FF6FA
:100BA000EF731A408282704721B1828A42F00802B4
:100BB000828204E0828A4FF6F7731A40828270477D
:100BC00021B1828942F40042828103E08289C2F32A
:100BD0000E028281704721B1828A42F400628282D1
:100BE00004E0828A4FF2FF731A4082827047828A41
:100BF0004FF6FB731A408282828A0A4382827047D0
:100C000021B1828A42F00202828204E0828A4FF697
:100C1000FD731A408282704702460020B1F5007FC2
:100C200000D100BF13880B400BB1012000E0002071
:100C3000704701F40072B2F5007F00D100BFCA43D3
:100C40000280704770B50246002400230025002072
:100C500040F66A16B14200D100BFC1F3421501F05F
:100C60001F03012606FA03F3012D02D196893340B2
:100C700006E0022D02D1168A334001E0968A334005
:100C80000C12012606FA04F41688344013B10CB194
:100C9000012000E0002070BD10B50022002340F6C6
:100CA0006A14A14200D100BF0A1201249440A3B2E9
:100CB000DC43048010BD00000038014000440040C7
:100CC00000480040004C00400050004031490143C2
:100CD000314A1160704770B5002100230F22C4789B
:100CE00004B32D4C246804F4E064C4F5E064210AE4
:100CF000C1F10403CA40447804FA03F18478144033
:100D000021430901254C0678A155047804F01F05FC
:100D10000124AC4005786D11AD0005F1E025C5F862
:100D2000004109E0047804F01F050124AC401C4D8B
:100D30000678761145F8264070BD1A4A0A400243EB
:100D4000154B1B1F1A60704739B1134A121D1268E8
:100D50000243114B1B1D1A6006E00F4A121D126858
:100D600082430D4B1B1D1A607047042808D14FF0B9
:100D7000E021096941F004014FF0E022116107E030
:100D80004FF0E021096921F004014FF0E0221161E8
:100D9000704700000000FA050CED00E000E400E000
:100DA00080E100E080FFFF1F002044490860091D2A
:100DB0000860091D0860091D086041483F49143159
:100DC0000860704700213D498279002A3AD00A46DE
:100DD000126803689A430B461A600A1D126803687A
:100DE0009A430B1D1A60027911440A6803681A437A
:100DF0000A60324A0832126803689A432F4B08335C
:100E00001A601A1D126803689A432C4B0C331A603F
:100E10004279102A0ED11A1F126803681A43274B11
:100E200008331A601A1D126803681A43234B0C33E7
:100E30001A600DE02149427911440A6803681A4397
:100E40000A6005E0027911440A6803689A430A605F
:100E500070470021016001710C21417100218171F5
:100E600070471649103109680143144A1032116065
:100E7000704701460020114A143212680A400AB134
:100E8000012000E0002070470C49143108607047D1
:100E9000014600200022094B1B6803EA0102074BB0
:100EA00014331B680B4013B10AB1012000E000208D
:100EB0007047024914310860704700000004014087
:100EC000FFFF0F0001460020FE4A106800F03800C6
:100ED000084310607047FB49096821F00801F94A8E
:100EE000116011460968014311607047F5490968AE
:100EF00021F01001F34A11601146096801431160A5
:100F00007047F148EF494860F04848607047EE4844
:100F1000EC494860ED4848607047EA48006940F095
:100F20008000E84908617047E648006940F08000A9
:100F3000E449086170470420E249C96801F00101F1
:100F400009B101200EE0DF49C96801F0040109B1CF
:100F5000022007E0DB49C96801F0100109B1032054
:100F600000E00420704700B502460423FFF7E3FFCA
:100F7000034603E0FFF7DFFF0346521E012B01D1BA
:100F8000002AF7D102B90523184600BD30B5044642
:100F900004254FF43020FFF7E6FF0546042D17D156
:100FA000C848006940F00200C6490861084644612B
:100FB000006940F0400008614FF43020FFF7D3FF94
:100FC0000546C048006941F6FD710840BD49086109
:100FD000284630BD10B504244FF43020FFF7C3FF7E
:100FE0000446042C16D1B748006940F00400B54906
:100FF00008610846006940F0400008614FF4302065
:10100000FFF7B1FF0446AF48006941F6FB710840A5
:10101000AC490861204610BD00B502460423FFF725
:101020008AFF034603E0FFF786FF0346521E012BAB
:1010300001D1002AF7D102B90523184600BD10B529
:1010400004244FF43020FFF7E7FF0446042C16D1A8
:101050009C48006940F004009A490861084600690C
:1010600040F0400008614FF43020FFF7D5FF044600
:101070009448006941F6FB71084092490861204696
:1010800010BD00208F49C96901F0020109B101209A
:1010900000E00020704730B5A5250424FFF7F1FFDC
:1010A00000B100254FF43020FFF75DFF0446042C0B
:1010B0003AD1854883498860844888600846006939
:1010C00040F0200008610846006940F040000861D7
:1010D0004FF43020FFF747FF0446042C1BD179481A
:1010E000006941F6DF7108407649086108460069E9
:1010F00040F01000086176480580E002FFF733FFFA
:101100000446052C10D06F48006941F6EF71084085
:101110006C49086108E0052C06D06A48006941F670
:10112000EF71084067490861204630BD78B5064632
:101130000C46042500200090E802FFF714FF054646
:10114000042D24D15F48006940F001005D49086129
:101150003480E802FFF707FF0546042D10D1B01CCC
:101160000090200C00990880E802FFF7FCFE05467D
:101170005448006941F6FE7108405249086106E092
:101180005048006941F6FE7108404E490861284602
:1011900078BD70B504460D460426F002FFF7E3FE65
:1011A0000646042E11D14748006940F00100454928
:1011B00008612580F002FFF7D6FE06464148006927
:1011C00041F6FE7108403F490861304670BD70B578
:1011D00005460E460424E002FFF7C5FE0446042C33
:1011E00017D139483749886038488860084600690F
:1011F00040F0100008612E80E002FFF7B4FE0446C4
:10120000052C06D02F48006941F6EF7108402D49A2
:101210000861204670BD2DE9F04304464FF6FF7685
:101220003746B046B1460425E443E6B2C4F3072787
:10123000C4F307484FEA1469E802FFF794FE054635
:10124000042D49D120481F498860204888600846FD
:10125000006940F010000861FF2E06D01C480830DD
:101260000680E802FFF77FFE0546042D08D1FF2F18
:1012700006D017480A300780E802FFF774FE0546DB
:10128000042D0AD1B8F1FF0F07D011480C30A0F897
:101290000080E802FFF767FE0546042D0AD1B9F188
:1012A000FF0F07D00A480E30A0F80090E802FFF7C1
:1012B0005AFE0546052D0FD00248006941F6EF7130
:1012C000084007E00020024023016745AB89EFCDCD
:1012D00000F8FF1F664908612846BDE8F08330B575
:1012E000054604244FF43020FFF73DFE0446042C4D
:1012F00041D160485E4988605F488860084600695F
:1013000040F0200008610846006940F04000086194
:101310004FF43020FFF727FE0446042C22D1544816
:10132000006941F6DF7108405149086108460069CB
:1013300040F0100008611DB100205049088002E013
:10134000A5204E4908804FF43020FFF70CFE0446DC
:10135000052C10D04648006941F6EF710840444919
:10136000086108E0052C06D04148006941F6DF71AC
:1013700008403F490861204630BDF0B505460E469D
:10138000174604243B483A4988603B488860E0029D
:10139000FFF7E9FD0446042C19D13548006940F0F7
:1013A00010003349086147F0F800304328433349BF
:1013B000891C0880E002FFF7D6FD0446052C06D004
:1013C0002B48006941F6EF71084029490861204621
:1013D000F0BD2748C069800870472548006A7047FB
:1013E00000202349096801F0200109B1012000E033
:1013F0000020704729B11E4A126902431C4B1A6132
:1014000004E01B4A12698243194B1A617047014676
:101410000020012908D1164AD26902F001020AB15E
:10142000012008E0002006E0114AD2680A400AB113
:10143000012000E0002070470D49C860704704207B
:101440000B49C96801F0010109B101200EE008490A
:10145000C96801F0040109B1022007E00449C96824
:1014600001F0100109B1032000E0042070470000E2
:101470000020024023016745AB89EFCD00F8FF1F34
:1014800010B50446F748844209D101214805FFF709
:101490002EF800214FF40010FFF729F808E0012191
:1014A0008805FFF724F800214FF48000FFF71FF8AC
:1014B00010BD2DE9F04385B004460D460026B14627
:1014C0000427DFF8A483A6884FF6C070064068465C
:1014D000FEF779FFDDF80880E448B8FBF0F01FFA6A
:1014E00080F946EA0906A68020884FF6FE7108407A
:1014F00020800026DE49286888420CD828684000F1
:10150000B8FBF0F087B2042F00DA04273E4309F15C
:101510000100208427E0E8884BF6FF71884206D15D
:10152000286800EB4000B8FBF0F087B209E02868BB
:1015300000EBC00101EB0010B8FBF0F087B247F4FC
:101540008047C7F30B0008B947F0010747F4004094
:1015500006434FF4967009FB00F04FF47A7190FB4C
:10156000F1F0401C2084A683208840F001002080F8
:1015700026884FF6F5300640A88869890843064357
:101580002680A88929890843208105B0BDE8F08319
:1015900041F288310160002181804BF6FF71C180EA
:1015A0000021018141814FF480418181704721B147
:1015B000028842F00102028004E002884FF6FE73C6
:1015C0001A400280704721B1828842F40062828012
:1015D00004E082884FF2FF731A408280704721B185
:1015E000828842F48052828004E082884EF6FF7343
:1015F0001A408280704721B1028842F480720280D2
:1016000004E002884FF6FF631A400280704721B160
:10161000028842F40072028004E002884FF6FF5311
:101620001A400280704721B1028842F48062028031
:1016300004E002884FF6FF331A40028070470A46E2
:10164000002181894FF60173194002F0FE0319430E
:101650008181704721B1828942F00102828104E0D8
:1016600082894FF6FE731A408281704721B1028849
:1016700042F04002028004E002884FF6BF731A4035
:10168000028070471AB183880B43838002E083880D
:101690008B4383807047018270470146088AC0B23D
:1016A000704712B141F0010102E04FF6FE7319409C
:1016B0000182704708B50246002000900092009811
:1016C000084400900098008808BD21B1028842F4C7
:1016D0000042028003E00288C2F30E0202807047DB
:1016E000B1F5006F04D1028842F40062028004E088
:1016F00002884FF2FF731A4002807047B1F5005F15
:1017000004D1028842F40052028004E002884DF6BF
:10171000FF731A400280704721B1028842F4805260
:10172000028004E002884EF6FF731A400280704780
:10173000B1F5006F04D1028842F40062028004E037
:1017400002884FF2FF731A400280704721B102886D
:1017500042F02002028004E002884FF6DF731A4054
:10176000028070470146088B0012704721B1028841
:1017700042F01002028004E002884FF6EF731A4034
:101780000280704721B9028842F08002028004E0A2
:1017900002884FF67F731A4002807047B1F5804F80
:1017A00005D0828B4BF6FF731A40828303E0828B55
:1017B00042F480428283704770B5024600240025BF
:1017C00000230020958A138B1B0445EA030626F0AC
:1017D0007F4404EA01068E4201D1012000E000208E
:1017E00070BD10B501460020002300228B8A0A8BB1
:1017F000120443EA020424F07F4010BD0CB50246F7
:10180000002000230193009300920B0F019321F01D
:101810007F41019B1BB1009B1433009303E0090C33
:10182000009B18330093009B1B680B400BB10120F9
:1018300000E000200CBD002221F07F42D3438382D0
:10184000704730B5024600200023948801F0E0651F
:1018500004EA154321F07F41948A0C4054B14BB106
:10186000012008E00054004000127A0040420F00BE
:10187000A0860100002030BD002221F07F42D3432A
:101880008382704710B50446FE48844208D1012186
:10189000C014FEF71FFE0021E014FEF71BFEC4E09B
:1018A000B4F1804F08D101210846FEF720FE002147
:1018B0000120FEF71CFEB8E0F348844208D1012164
:1018C0000220FEF714FE00210220FEF710FEACE01D
:1018D000EE48844208D101210420FEF708FE0021D1
:1018E0000420FEF704FEA0E0E948844208D101216B
:1018F0000820FEF7FCFD00210820FEF7F8FD94E02B
:10190000E448844208D101211020FEF7F0FD0021B7
:101910001020FEF7ECFD88E0DF48844208D1012169
:101920002020FEF7E4FD00212020FEF7E0FD7CE012
:10193000DA48844208D101214014FEF7CBFD002192
:101940006014FEF7C7FD70E0D548844209D101213B
:10195000C804FEF7BFFD00214FF40020FEF7BAFDDA
:1019600063E0D048844209D101210805FEF7B2FDA9
:1019700000214FF48010FEF7ADFD56E0CA488442C6
:1019800009D101214805FEF7A5FD00214FF4001003
:10199000FEF7A0FD49E0C548844208D1012140205E
:1019A000FEF7A5FD00214020FEF7A1FD3DE0C04867
:1019B000844208D101218020FEF799FD002180207A
:1019C000FEF795FD31E0BB48844208D10121801526
:1019D000FEF78DFD0021A015FEF789FD25E0B64834
:1019E000844209D101210804FEF774FD00214FF45F
:1019F0008030FEF76FFD18E0B048844209D1012124
:101A00004804FEF767FD00214FF40030FEF762FD49
:101A10000BE0AB48844208D101218804FEF75AFD4F
:101A200000214FF48020FEF755FD10BD00220288F2
:101A3000944B98420ED0994B98420BD0B0F1804F06
:101A400008D0914B984205D0904B984202D0904BD1
:101A5000984204D14FF68F731A404B881A438D4B2E
:101A6000984207D08C4B984204D04FF6FF431A405F
:101A7000CB881A4302808B8883850B880385814B32
:101A800098420BD0854B984208D08B4B984205D09A
:101A90008A4B984202D08A4B984201D10B7A038636
:101AA00001238382704770B5002400220023058C37
:101AB0004FF6FE7635400584028C8388048B4FF602
:101AC0008F752C40B51E2C400D882C43751E2A4066
:101AD0000D892A434D882A436A4DA8420BD06F4D89
:101AE000A84208D0744DA84205D0744DA84202D037
:101AF000734DA84213D14FF6F7752A404D892A43FA
:101B00004FF6FB752A408D882A434FF6FF652B4020
:101B10004FF6FF552B408D892B43CD892B43838076
:101B20000483CD888586028470BD70B500240022B0
:101B30000023058C4FF6EF7635400584028C8388B0
:101B4000048B48F6FF752C404FF6FF452C400D885E
:101B50004FF6FF7606EA05252C434FF6DF752A403F
:101B60000D8906EA05152A434D8806EA05152A431C
:101B7000444DA84202D0494DA8421DD14FF67F7571
:101B80002A404D894FF6FF7606EA05152A434FF69F
:101B9000BF752A408D8806EA05152A434FF6FF35A2
:101BA0002B404FF2FF752B408D8906EA85052B43AC
:101BB000CD8906EA85052B4383800483CD8805877C
:101BC000028470BD70B5002400220023058C4FF6FE
:101BD000FF6635400584028C8388848B4FF68F75B1
:101BE0002C404FF6FC752C400D882C434FF6FF55CA
:101BF0002A400D894FF6FF7606EA05252A434D88CF
:101C000006EA05252A431F4DA84202D0234DA842CB
:101C10001DD14FF2FF752A404D894FF6FF7606EA37
:101C200005252A434FF6FF352A408D8806EA05250B
:101C30002A434EF6FF752B404DF6FF752B408D89DC
:101C400006EA05152B43CD8906EA05152B4383804B
:101C50008483CD888587028470BD70B500220023FF
:101C60000024058C4EF6FF7635400584038C84886D
:101C7000828B48F6FF752A404FF6FF452A400D88B3
:101C800020E00000002C014000040040000800405B
:101C9000000C0040001000400014004000340140DF
:101CA000004C014000500140005401400018004029
:101CB000001C004000200040004001400044014062
:101CC000004801404FF6FF7606EA05252A434DF607
:101CD000FF752B400D8906EA05352B434D8806EA32
:101CE00005352B43FA4DA84202D0FA4DA84208D13F
:101CF0004BF6FF752C408D894FF6FF7606EA851569
:101D00002C4384808283CD88A0F84050038470BD2A
:101D1000828B4FF2FF331A408283828B4FF6FF7320
:101D200003EA01231A4382837047F0B50C46154637
:101D3000002200210026078C4EF6FF7C07EA0C07E4
:101D40000784828B018C4FF6FF7707EA043640F652
:101D5000FF473A404FF6FF7707EA05273A434FF629
:101D6000FF7707EA03373A43D94FB8420ED0D94F2D
:101D7000B8420BD0B0F1804F08D0D74FB84205D051
:101D8000D64FB84202D0D64FB84206D14DF6FF77B3
:101D9000394046F48057394305E047F6FF5739404C
:101DA00044F48057394382830184F0BD828B4FF61F
:101DB000F3731A408283828B0A4382837047F0B5A3
:101DC0000C461546002200210026078C4FF6FF6CBA
:101DD00007EA0C070784828B018C4FF6FF7707EA2E
:101DE00004264FF60C773A404FF6FF7707EA0317C1
:101DF0002F433A43B64FB8420ED0B64FB8420BD03D
:101E0000B0F1804F08D0B44FB84205D0B34FB842BC
:101E100002D0B34FB84206D14FF6FF57394046F4CF
:101E20008077394305E04FF2FF57394044F480771B
:101E3000394382830184F0BD028B4FF2FF331A4095
:101E40000283028B4FF6FF7303EA01231A430283D6
:101E50007047F0B50C461546002200210026078C7D
:101E60004FF6EF7C07EA0C070784028B018C4FF6D4
:101E7000FF7707EA041640F6FF473A404FF6FF7730
:101E800007EA03373A434FF6FF7707EA05273A4355
:101E90008F4FB8420ED08F4FB8420BD0B0F1804F69
:101EA00008D08D4FB84205D08C4FB84202D08C4F2D
:101EB000B84206D14FF6DF77394046F01007394374
:101EC00005E04FF65F77394044F01007394302834D
:101ED0000184F0BD028B4FF6F3731A400283028B2C
:101EE0000A4302837047F0B50C46154600220021D4
:101EF000068C4FF6FE773E400684028B018C4FF62F
:101F00000C7632407E1C06EA03162E433243704E96
:101F1000B0420ED06F4EB0420BD0B0F1804F08D01F
:101F20006D4EB04205D06D4EB04202D06C4EB04204
:101F300006D14FF6FD76314044F00106314305E00D
:101F40004FF6F576314044F00106314302830184B7
:101F5000F0BD70B505460C465D4885420ED05D4823
:101F600085420BD0B5F1804F08D05B48854205D043
:101F70005A48854202D05A48854200D100E000BF4D
:101F8000208850B92389A28861882846FFF7ABFFD3
:101F9000E1882846FFF79EFF25E0208804280AD123
:101FA0002389A28861882846FFF753FFE1882846E5
:101FB000FFF742FF17E0208808280AD12389A2886A
:101FC00061882846FFF7FBFEE1882846FFF7EEFE12
:101FD00009E02389A28861882846FFF7A6FEE188E8
:101FE0002846FFF795FE70BD2DE9F04105460C46E9
:101FF00000260127608808B9022600E00026A08894
:10200000012801D1022700E001272088A0B92389F7
:10201000A28861882846FFF766FFE1882846FFF717
:1020200059FF23893A4631462846FFF712FFE188D7
:102030002846FFF701FF13E02389A288618828461C
:10204000FFF707FFE1882846FFF7F6FE23893A46A7
:1020500031462846FFF747FFE1882846FFF73AFF59
:10206000BDE8F0810A884B881A438B881A43CB88D5
:102070001A430B891A434B891A438B891A43A0F8D8
:10208000442070474FF6FF71818000210180C1809C
:102090004180017270470021018041808180C180B0
:1020A000018141818181C18170470021018041808E
:1020B000012181800021C1800181704700210180C0
:1020C00041808180C1800181418181817047000010
:1020D000002C014000340140000400400008004092
:1020E000000C004021B1028842F00102028004E0AD
:1020F00002884FF6FE731A400280704731B1B0F883
:10210000442042F40042A0F8442005E0B0F8442006
:10211000C2F30E02A0F8442070471AB183890B4322
:10212000838102E083898B4383817047818270477A
:1021300041EA0203A0F8483070471AB183890B4383
:10214000838102E083898B438381704701894FF645
:10215000F8721140018170470A46002101894FF64B
:102160008F73194011430181704730B504460D4605
:1021700029462046FFF7F0FF208940F00700208124
:1021800030BD2DE9F04104460D4616461F46602D30
:1021900006D13B46012231462046FFF75AFE05E0B4
:1021A0003B46012231462046FFF79DFE2946204648
:1021B000FFF7D2FF208940F007002081BDE8F081C1
:1021C00030B50C4600210189C9B24FF6FF7505EA0A
:1021D0000325154325432943018130BD2DE9F041F5
:1021E00005460E4617469846002443463A46314671
:1021F0002846FFF7E5FF2C894FF6F870044044F0BD
:1022000007044FF68F70044044F070042C81BDE841
:10221000F081F0B504460D4616461F463B46324651
:1022200029462046FFF7CCFF208940F480402081DA
:10223000F0BD0185828270470A46002101884FF671
:102240008F731940114301807047F0B50C46154655
:102250001E460021002200230189028B038C4FF6C9
:10226000F877394021434FF6FC473A4040F20117D6
:102270003A434FF6DD773B404FF6FF7707EA061704
:102280002F433B43018102830384F0BD0A460021B2
:10229000018B4FF68F7319401143018370470A4633
:1022A0000021018B48F6FF7319404FF6FF7303EAD4
:1022B00002231943018370470A460021818B4FF6A0
:1022C0008F7319401143818370470A460021818B27
:1022D00048F6FF7319404FF6FF7303EA02231943D0
:1022E0008183704721B1028842F08002028004E0BD
:1022F00002884FF67F731A400280704721B18288AE
:1023000042F00402828004E082884FF6FB731A4098
:102310008280704721B1828842F00802828004E006
:1023200082884FF6F7731A408280704721B1828805
:1023300042F00102828004E082884FF6FE731A4068
:10234000828070470A460021018B4FF6F7731940CF
:102350001143018370470A460021018B4FF2FF733E
:1023600019404FF6FF7303EA0223194301837047B4
:102370000A460021818B4FF6F77319401143818380
:1023800070470A460021818B4FF2FF7319404FF6C8
:10239000FF7303EA02231943818370470A46002131
:1023A000018B4FF6FB7319401143018370470A46B6
:1023B0000021018B4FF6FF3319404FF6FF7303EAFC
:1023C00002231943018370470A460021818B4FF68F
:1023D000FB7319401143818370470A460021818BAA
:1023E0004FF6FF3319404FF6FF7303EA02231943F8
:1023F000818370470A460021018B4FF67F73194095
:102400001143018370470A460021018BC1F30E017D
:102410004FF6FF7303EA02231943018370470A460C
:102420000021818B4FF67F731940114381837047E0
:102430000A460021818BC1F30E014FF6FF7303EAB8
:1024400002231943818370470A460021018C4FF60D
:10245000FD7319401143018470470A460021018C25
:102460004FF6F77319401143018470470A46002163
:10247000018C4FF6DF7319404FF6FF7303EA021326
:102480001943018470470A460021018C4FF67F737F
:1024900019404FF6FF7303EA021319430184704792
:1024A0000A460021018C4FF6FF5319404FF6FF7387
:1024B00003EA02231943018470470A460021018C74
:1024C0004FF2FF7319404FF6FF7303EA02231943DB
:1024D000018470470A460021018C4DF6FF731940B4
:1024E0004FF6FF7303EA023319430184704730B596
:1024F000002301248C40A3B2048C9C430484048CEC
:1025000002FA01F5ADB22C43048430BD30B500238E
:1025100004248C40A3B2048C9C430484048C02FAEF
:1025200001F5ADB22C43048430BD70B503460020E4
:1025300000241846183001258D40ACB21D8CA543EF
:102540001D8409B1082909D100EB6100056825F057
:10255000700505600568154305600EE00D1FC5F3A5
:102560004E052844056825F4E045056005684FF6EA
:10257000FF7606EA02263543056070BD21B1028868
:1025800042F00202028004E002884FF6FD731A4016
:102590000280704721B1028842F00402028004E008
:1025A00002884FF6FB731A400280704721B182887F
:1025B00042F08002828004E082884FF67F731A40E6
:1025C0008280704702884FF6F7731A4002800288B3
:1025D0000A430280704782884FF68F731A408280C8
:1025E00082880A438280704702894FF6F8731A4046
:1025F000028102890A430281704702894FF67F7384
:102600001A40028102890A4302817047818470471F
:102610008185704781867047018770478187704741
:10262000A0F84010704702884FF6FF431A4002801E
:1026300002880A43028070470146888E704701462F
:10264000088F70470146888F70470146B1F84000F7
:1026500070470146888C70470146088D70470246D6
:102660000020138A0B400BB1012000E000207047CE
:10267000CA430282704730B502460020002300247E
:10268000158A05EA0103958905EA010413B10CB125
:10269000012000E0002030BDCA43028270470000E4
:1026A0000CB50020019000906C48006840F4803028
:1026B0006A49086000BF6948006800F40030009073
:1026C0000198401C0190009818B90198B0F5A06FCE
:1026D000F1D16248006800F4003010B10120009090
:1026E00001E0002000900098012843D15C48006878
:1026F00040F010005A4908600846006820F00300C6
:1027000008600846006840F00200086053484068CE
:10271000524948600846406848600846406840F4AE
:10272000806048600846406820F47C104860084695
:10273000406840F4E81048600846006840F0807047
:10274000086000BF4548006800F000700028F9D01C
:102750004248406820F0030040494860084640680D
:1027600040F00200486000BF3C48406800F00C00A8
:102770000828F9D10CBD10B5FFF792FF10BD10B5B8
:102780003648006840F00100344908600846406857
:1027900034490840314948600846006832490840D9
:1027A0002E4908600846006820F48020086008462A
:1027B000406820F4FE0048604FF41F008860FFF777
:1027C000DAFF4FF000602949086010BD10B5002104
:1027D00000200022214B5B6803F00C0121B1042989
:1027E00006D0082928D107E0214B224C236027E09E
:1027F0001F4B204C236023E0184B5B6803F47010E0
:10280000164B5B6803F48032022303EB904022B93D
:10281000194B4343174C23600DE0104B5B6803F4E6
:10282000003323B1144B4343124C236003E0104B9D
:102830004343104C236003E00D4B0E4C236000BF5C
:1028400000BF064B5B68C3F303130C4CE15C094B00
:102850001B68CB40074C236010BD000000100240F5
:10286000002002400000FFF8FFFFF6FE08ED00E048
:1028700000127A002000002000093D002400002002
:102880008449854A116000201AE0002200EB800391
:10289000824901EBC3010A6100EB80037F4901EB30
:1028A000C3018A6100EB80037C4901EBC301CA616B
:1028B00000EB8003794901EBC3010A62411CC8B2F5
:1028C0000328E2DB70472DE9FF4F87B082468B4635
:1028D0001546149C5946504606F04DF8064694F8A5
:1028E0002500012803D1304601F04CFC06460A9829
:1028F00090B92946304606F044F80690216905F063
:10290000E8FF2061606980F000400690D4E904028D
:10291000069900F0A1FE206194F8240001280AD154
:102920003046A16906F027F82946069006F05BF8C4
:102930000746A66112E05946A06906F01CF8294630
:10294000069006F050F8074694F82500012803D1B8
:10295000384601F017FC0746C4F818B03846E1695C
:1029600006F009F8294605904B48006805F0B1FFCC
:1029700001460390284606F036F80490059906F0C3
:1029800000F80690E16905F0A4FF80464046E16941
:1029900005F09FFF0590216A05F09BFF40490690D6
:1029A00005F0EFFF8146E0692062C4F81C8094F8CE
:1029B0002500012818D14946E06805F0E2FF06909D
:1029C0002169A06805F0DDFF04903146606805F0DC
:1029D000D8FF0390049905F07CFF0590069905F057
:1029E00078FF0BB0BDE8F08F5946606805F0C9FF6D
:1029F00006904946E06805F0C4FF04902169A0688C
:102A000005F0BFFF0290D4E9001005F0BAFF51466F
:102A1000009005F0B6FF0190029905F05AFF03906F
:102A2000049905F056FF0590069905F0A4FFD8E734
:102A300000EB8003194A02EBC3021161704710B525
:102A4000002405E000212046FFF7F2FF601CC4B21D
:102A5000032CF7DB10BD00EB8003104A02EBC3022E
:102A6000916100EB80030D4A02EBC302D16100EBE0
:102A700080030A4A02EBC3021162704710B50024BA
:102A800005E000212046FFF7E6FF601CC4B2032CDE
:102A9000F7DB10BD3661023C3800002070030020D7
:102AA0009FAAAA3E2DE9F0474FF4A272AF49B04861
:102AB00005F0E4FEAE49086C06F093F9064607F00F
:102AC00075FC044622460B460020AA4906F0E2F8AF
:102AD000804606F099F9A8490860A549D1F8E800B0
:102AE0004FF0804105F07FFFA4490860A049D1F86C
:102AF000EC004FF0804105F076FFA04948609C490A
:102B0000D1F8F0004FF0804105F06DFF9B498860DF
:102B1000084601684FF07E5005F065FF984908604F
:102B2000964841684FF07E5005F05DFF944948603B
:102B3000924881684FF07E5005F055FF90498860BB
:102B4000BDE8F08770B5FEF7DCF93420FEF774FCC1
:102B50008648FEF71BFA042810D100240AE0844AB4
:102B60001159824AA018FEF7E1FA0546042D00D05B
:102B700003E0241DB4F5A27FF1D300BFFEF7CDF929
:102B8000FFF790FF70BD70B50446784805781CB912
:102B90007C48007885427DD07A4800787449087076
:102BA00000204860002172488160C16000207049A7
:102BB000086100216E484161816100206C49C86153
:102BC00000216B480162416200206949886200214E
:102BD0006748C16201630020654948630021644879
:102BE0008163C1634FF07E50614908646648486460
:102BF000002088646448C86400200865022081F8C9
:102C00005400624888654FF07E50C8656049584856
:102C100001665D4941665F4981660021C1665E4982
:102C20000167002141678167C167012180F8801039
:102C3000002180F881104FF07E51C0F88410574970
:102C4000C0F888105049C0F88C105549C0F8901051
:102C50000021C0F894105049C0F898100021C0F825
:102C60009C10C0F8A010C0F8A410012180F8A81092
:102C7000002180F8A9104FF07E51C0F8AC104449F3
:102C8000C0F8B0104049C0F8B4104249C0F8B810BC
:102C9000002100E068E0C0F8BC103F49C0F8C01057
:102CA0000021C0F8C410C0F8C810C0F8CC10012131
:102CB00080F8D010002180F8D1103A482C49C1F892
:102CC000D400C1F8D800C1F8DC00002081F8E00091
:102CD00081F8E10081F8E20081F8E30081F8E40086
:102CE00081F8E500042081F8E6002F48C1F8E800EB
:102CF000C1F8EC00C1F8F0002C48C1F8F400012044
:102D000081F8F80081F8F90081F8FA002848C1F844
:102D1000FC00C1F80001C1F804012648C1F808010F
:102D2000C1F80C01C1F810012348C1F81401214871
:102D3000C1F81801C1F81C011648C1F82001C1F8FA
:102D40002401C1F828010020C1F82C01C1F830018C
:102D5000C1F834014FF07A50C1F83801C1F83C0194
:102D6000C1F84001FFF7EEFE70BD000000F8030857
:102D7000140300200000F03FE00000203C00002091
:102D800048000020640000200000A04000803B4577
:102D900000002041CDCCCC3D00007A440000204012
:102DA000CDCC4C3D00005C4200006041DB0F493F50
:102DB000C2B8323F368DA73F920A063F2DE9FE4347
:102DC0009624002000900190029000256FE003F00F
:102DD00010FA03F0A9F98B49B1F9000005F0C9FF19
:102DE000074689480168384605F0C5FD064687490B
:102DF00005F0C7FD864908608249B1F9020005F077
:102E0000B8FF074680484168384605F0B4FD0646DD
:102E10007E4905F0B6FD7E4948607A49B1F9040063
:102E200005F0A7FF074678488168384605F0A3FDFE
:102E300080F000467549304605F0A3FD744988606E
:102E40000846806880F000470846406880F00048E7
:102E50003946404606F0B0FF0646009905F039FDB8
:102E600000906B48806880F00047694908683946DF
:102E700006F0A2FF0646019905F02BFD01902046C1
:102E800005F077FF06463146009805F0ACFD614934
:102E90000860204605F06DFF06463146019805F0B2
:102EA000A2FD5C494860022002F0E3FC6D1CA542D3
:102EB0008DDB5848416856480161564800685449BE
:102EC000C860002152484161BDE8FE832DE9F04F02
:102ED00087B005460C4617461E46B86880F0004885
:102EE000786880F000494146484606F065FF049046
:102EF000B86880F000484146386806F05DFF0590EC
:102F00004549286805F03DFD8146049905F0E1FC3E
:102F10008046424905F067FD28603F49686805F032
:102F200030FD8146059905F0D4FC80463B4905F00B
:102F30005AFD6860706802906168686805F01BFD62
:102F40008246374905F01DFD81461099029805F02B
:102F500018FD8246616805F0BCFC8046494605F0D4
:102F6000B8FC6060606807F05DF98246B16805F002
:102F700008FD8046606820F0004B584607F04AF88C
:102F80008246316805F0FDFC8146414605F0A1FC12
:102F900001902168286805F0EEFC8246204905F082
:102FA000F0FC80461099019805F0EBFC8246216800
:102FB00005F08FFC8146414605F08BFC206060687F
:102FC00007F030F98246316805F0DBFC8046606826
:102FD00020F0004B584607F01DF88246B16805F016
:102FE000D0FC8146414605F0C6FC03901099039839
:102FF00005F0C7FC8046A16805F06BFCA06007B037
:10300000BDE8F08FAE010020CC19002057E79C3AB4
:1030100058040020940400200000C6420000C8426A
:1030200017B751392DE9F04700241EE0204605F07E
:10303000A0FE0746324905F0A4FC06464FF0894140
:1030400005F0D1FC0546284607F0ECF881462D49ED
:1030500005F097FC064605F0C4FE074607F098F811
:1030600000B2294921F81400641CB4F5806FDDDB3F
:10307000BDE8F0872DE9F04705460021284605F018
:10308000E9FE1DD81E49284605F0ADFC80464FF0EC
:10309000894105F076FC074605F08AFE0446C01714
:1030A00004EB90508012A4EB8026174931F91600EA
:1030B00005F05FFE0446134905F095FCBDE8F08776
:1030C00085F000490E49484605F08DFC80464FF0DA
:1030D000894105F056FC074605F06AFE0446C01714
:1030E00004EB90508012A4EB8026074931F91610AA
:1030F000484205F03EFE0446024905F074FCDDE757
:10310000DB0FC94000FEFF46A004002070B5FE485A
:10311000D0F820114FF0804005F033FC0546FB4904
:1031200005F02FFC044621464FF07E5005F0D1FB00
:10313000054629464FF07E5005F055FCF4490860DD
:1031400021464FF07E5005F0C4FB054629464FF05E
:103150007E5005F048FCEE49486021464FF07E5015
:1031600005F0B7FB054621464FF07E5005F003FC05
:103170000646294605F037FCE54988600020C8600E
:103180000861E148D0F824114FF0804005F0F9FBC8
:103190000546DE4905F0F5FB044621464FF07E501A
:1031A00005F097FB054629464FF07E5005F01BFCC5
:1031B000D749486121464FF07E5005F08AFB05460D
:1031C00029464FF07E5005F00EFCD149886121461A
:1031D0004FF07E5005F07DFB054621464FF07E50B6
:1031E00005F0C9FB0646294605F0FDFBC849C86144
:1031F0000021C74801624162C348D0F828114FF04E
:10320000804005F0BEFB0546C04905F0BAFB044608
:1032100021464FF07E5005F05CFB054629464FF0F5
:103220007E5005F0E0FBBA49886221464FF07E509F
:1032300005F04FFB054629464FF07E5005F0D3FBC5
:10324000B349C86221464FF07E5005F042FB054667
:1032500021464FF07E5005F08EFB0646294605F0CC
:10326000C2FBAB490863AB49A94841638163A648E7
:10327000D0F82C114FF0804005F083FB0546A6499D
:1032800005F07FFB044621464FF07E5005F021FB00
:10329000054629464FF07E5005F0A5FB9C49C863C2
:1032A00021464FF07E5005F014FB054629464FF0AD
:1032B0007E5005F098FB9649086421464FF07E50F9
:1032C00005F007FB054621464FF07E5005F053FB05
:1032D0000646294605F087FB8D49486400218C4845
:1032E0008164C1648848D0F830114FF0804005F007
:1032F00048FB0546884905F044FB044621464FF04B
:103300007E5005F0E6FA054629464FF07E5005F05E
:103310006AFB7F49086521464FF07E5005F0D9FAD7
:10332000054629464FF07E5005F05DFB784948651B
:1033300021464FF07E5005F0CCFA054621464FF06D
:103340007E5005F018FB0646294605F04CFB7049F7
:10335000886500216E48C16501666B48D0F834115C
:103360004FF0804005F00DFB05466B4905F009FB69
:10337000044621464FF07E5005F0ABFA054629463B
:103380004FF07E5005F02FFB6149486621464FF013
:103390007E5005F09EFA054629464FF07E5005F016
:1033A00022FB5B49886621464FF07E5005F091FA7A
:1033B000054621464FF07E5005F0DDFA06462946C7
:1033C00005F011FB5249C866002151480167416769
:1033D0004D48D0F838114FF0804005F0D2FA05463C
:1033E0004D4905F0CEFA044621464FF07E5005F0D7
:1033F00070FA054629464FF07E5005F0F4FA44492C
:10340000886721464FF07E5005F063FA054629464D
:103410004FF07E5005F0E7FA3D49C86721464FF06E
:103420007E5005F056FA054621464FF07E5005F0D5
:10343000A2FA0646294605F0D6FA3549C1F88000B9
:1034400000213348C0F88410C0F888102E48D0F806
:103450003C114FF0804005F094FA05462E4905F0E6
:1034600090FA044621464FF07E5005F032FA0546A8
:1034700029464FF07E5005F0B6FA2549C1F88C0078
:1034800021464FF07E5005F024FA054629464FF0BC
:103490007E5005F0A8FA1E49C1F8900021464FF071
:1034A0007E5005F016FA054621464FF07E5005F095
:1034B00062FA0646294605F096FA1549C1F89400C5
:1034C00000211348C0F89810C0F89C100E48D0F89E
:1034D00040114FF0804005F054FA05460E4905F0C2
:1034E00050FA044621464FF07E5005F0F2F90546A9
:1034F00029464FF07E5005F076FA0549C1F8A00044
:1035000021464FF07E5009E0140300200000FA43EA
:10351000A00C00206DE71CC10000484205F0D9F95D
:10352000054629464FF07E5005F05DFA1D49C1F869
:10353000A40021464FF07E5005F0CBF90546214608
:103540004FF07E5005F017FA0646294605F04BFA73
:103550001449C1F8A80000211248C0F8AC10C0F806
:10356000B01070BD2DE9F04705460C462169A068F2
:1035700005F007FA8046E168606805F002FA8146C6
:103580002846216805F0FDF98246494605F0A1F973
:103590000746414605F0EFF90646E56026613046EC
:1035A000BDE8F087A00C0020704710A000F0A0FF3D
:1035B00000BFFEE711A000F09BFF00BFFEE718A0D0
:1035C00000F096FF00BFFEE71CA000F091FF00BFD7
:1035D000FEE770477047704710B503F0C9F910BD9A
:1035E00010B54FF48020FDF764FC10BD0A4841522D
:1035F00044204641554C542121210A000A4D454D95
:103600004F5259204D414E4147454D454E5420455E
:103610005843455054494F4E2121210A00000000D3
:103620000A425553204641554C5420455843455075
:1036300054494F4E2121210A000000000A555341F0
:103640004745204641554C54204558434550544920
:103650004F4E2121210A000070B506460D46144642
:103660002946304605F0ECFB01D2284670BD2146C4
:10367000304605F0EFFB01D22046F7E73046F5E78C
:103680002DE9F04705460E46DDE9087C002007E0FD
:103690004FF0000823F8108000F1010808F0FF0047
:1036A00005FB02F88045F3DC002027E000241FE042
:1036B000002117E000FB021833F9188000FB0649CF
:1036C00037F9199004FB021A3CF91AA009FB0A8881
:1036D0000FFA88F800FB021923F8198001F101089C
:1036E00008F0FF019142E5DB04F1010808F0FF0456
:1036F000B442DDDB00F1010808F0FF00A842D5DB91
:10370000BDE8F08710B504460021204605F0A2FB75
:1037100005D84FF07C51204605F0DBF810BD4FF086
:103720007C51204605F027F9F8E770B50446FCF710
:103730000FFD0546FE4800682044A84203D905F065
:103740000BFE06210160FA4800682044F849086031
:10375000002070BD1FB5D2B0002051902AE000219A
:1037600034AA519842F8201037AA519842F82010F4
:103770003AAA519842F8201043AA519842F82010D2
:1037800046AA519842F8201049AA519842F82010B0
:103790004CAA519842F8201000225898801D519947
:1037A00020F811205199589820F811205198401C68
:1037B000C0B2519051980228D1DD00203190329052
:1037C0003390509066E10020519099E0509800EBC2
:1037D0004001529800EB8101519851F820000C9063
:1037E000509800EB4001529800EB8101519851F83C
:1037F00020000B900C9905F0C4F80EAA519942F8DC
:103800002100509800EB4001529800EB8101519843
:1038100051F820004CA90C90519851F820000B90C1
:103820000C9905F056F84CAA519942F821000EA9BE
:10383000519851F8200049A90C90519851F8200056
:103840000B900C9905F045F849AA519942F82100CE
:10385000509800EB4001529800EB8101519851F8CB
:1038600020000EA90B90519851F820000A900B9956
:1038700005F087F846A90C90519851F820000146B0
:103880000B900C9805F025F846AA519942F82100B2
:10389000509800EB4001529800EB8101519851F88B
:1038A000200000210C9005F0D5FA01D2012000E0A3
:1038B000002000EB4001589800EB4101519831F88D
:1038C0001000401C84B2509800EB4001529800EB6D
:1038D0008101519851F8200000210C9005F0BAFAAE
:1038E00001D2012000E0002000EB4001589800EBDD
:1038F0004101519821F810405198401CC0B251909C
:10390000519802287FF762AF509800EB400152981F
:1039100000EB810040680B90509800EB40015298FA
:1039200050F821000A900B9905F02BF80C90339970
:1039300004F0CFFF3390509800EB4001529800EB19
:10394000810080680B90509800EB4001529850F82D
:1039500021000A900B9905F014F80C90329904F0AC
:10396000B8FF3290509800EB4001529800EB810074
:1039700080680B90509800EB4001529800EB81005A
:1039800040680A900B9904F0FCFF0C90319904F008
:10399000A0FF3190509800EB4001529800EB81005D
:1039A00040680B900E980A900B9904F0EAFF0C9077
:1039B0003B9801460B900C9804F08BFF3B9050987D
:1039C00000EB4001529800EB810080680B900E984C
:1039D0000A900B9904F0D5FF0C903C9801460B908F
:1039E0000C9804F076FF3C90509800EB4001529800
:1039F00050F821000B900F980A900B9904F0C1FF2A
:103A00000C90379801460B900C9804F062FF3790A9
:103A1000509800EB4001529800EB810080680B90B9
:103A20000F980A900B9904F0ACFF0C90399801465E
:103A30000B900C9804F04DFF3990509800EB40012A
:103A4000529850F821000B9010980A900B9904F0AE
:103A500098FF0C90349801460B900C9804F039FFB5
:103A60003490509800EB4001529800EB8100406880
:103A70000B9010980A900B9904F083FF0C903598E6
:103A800001460B900C9804F024FF35905098401C90
:103A900080B25090539950988842FFF694AE539854
:103AA00005F070F901460C904FF07E5004F09BFF3A
:103AB0000D900020519027E04CA9519851F820001A
:103AC0000C900D9904F05DFF43AA519942F8210032
:103AD00049A9519851F820000C900D9904F051FF1C
:103AE00040AA519942F8210046A9519851F8200066
:103AF0000C900D9904F045FF3DAA519942F8210020
:103B00005198401CC0B2519051980228D4DD0D99B3
:103B1000339804F036FF30900D99329804F031FF5D
:103B20002F900D99319804F02CFF2E903B9801E0D6
:103B3000EC0000200C900D9904F023FF29903C9894
:103B40000C900D9904F01DFF2D9037980C900D9955
:103B500004F017FF2C9039980C900D9904F011FF88
:103B60002B9034980C900D9904F00BFF2A90359807
:103B70000C900D9904F005FF289041980B90409807
:103B80000A900B9904F0A5FE0C90429801460B9008
:103B90000C9804F09EFE15904FF07C50159904F09F
:103BA000F0FE14903D980A902C9904F092FE0B9030
:103BB0002A9904F08EFE4FF041410C9004F0E1FE92
:103BC00013903E9801460A90299804F082FE0B90CB
:103BD000289904F07EFE4FF041410C9004F0D1FE94
:103BE00012902B992D9804F074FE0B903F9801468B
:103BF0000A900B9804F06DFE4FF041410C9004F0D8
:103C0000C0FE1190002051901AE043A9519851F83C
:103C100020101FAA42F820101FA9519851F8200027
:103C20000C90519851F820000B900C9904F0A9FECB
:103C30001CAA519942F821005198401CC0B25190E1
:103C400051980228E1DD1D980B901C980A900B9961
:103C500004F03FFE0C901E9801460B900C9804F067
:103C600038FE2790219809900146089004F089FEBB
:103C70000B90209807900146069004F082FE099070
:103C80001F9807900146069004F07BFE0890099962
:103C900004F01FFE0A900B9904F01BFE4FF0404108
:103CA0000C9004F06EFE26902699159804F011FEF3
:103CB0000C90279904F00DFE22902299279804F089
:103CC0005AFE4FF07C510C9004F05BFE2590259934
:103CD000149804F0FEFD24902299279804F04BFEDE
:103CE0000A90269904F0F5FD0B90159904F0F1FD6A
:103CF0004FF082410C9004F044FE239000204F903E
:103D000000BF0020519047E01FA9519851F82000B2
:103D1000014607904FF0804004F033FE43A908901D
:103D2000519851F8200001460790089804F029FEA8
:103D30001CA90990519851F8200001460890099853
:103D400004F01CFE40A90A90519851F82000014649
:103D500009900A9804F0BDFD4FF083410B9004F0E8
:103D600010FE0C90239904F0B4FD16AA519942F864
:103D7000210016A9519851F8200000210C9005F05F
:103D80005FF805D14FF07E5216A9519841F82020D6
:103D90005198401CC0B2519051980228B4DD44980B
:103DA000049020980390049904F0EBFD0690459848
:103DB000029021980190029904F0E3FD049040984C
:103DC0000290249904F085FD0390049904F0D3FD3A
:103DD0000590069904F0CFFD07901F9801460690C4
:103DE000079804F0CEFD09901C9880F000400490E4
:103DF000259904F0C0FD059043980146049005986C
:103E000004F0BFFD0790219803902F9904F0B9FDAD
:103E1000059020980390309904F0B3FD0490059923
:103E200004F057FD0690079904F053FD0890099996
:103E300004F04FFD4FF083410A9004F0A2FD0B9077
:103E4000139904F046FD0C90169801460B900C98BF
:103E500004F0C9FD80F00040199045980490219825
:103E60000390049904F08DFD0690439802901F98EA
:103E70000190029904F085FD0490419802902499E4
:103E800004F027FD0390049904F075FD0590069950
:103E900004F071FD0790209801460690079804F001
:103EA00070FD09901D9880F000400490259904F061
:103EB00062FD0590449801460490059804F061FD68
:103EC0000790219803902E9904F05BFD05901F98B0
:103ED0000390309904F055FD0490059904F0F9FC25
:103EE0000690079904F0F5FC0890099904F0F1FC9C
:103EF0004FF083410A9004F044FD0B90129904F0B6
:103F0000E8FC0C90179801460B900C9804F06BFDA0
:103F100080F000401A9044980490209803900499EF
:103F200004F02FFD0690439802901F98019002998B
:103F300004F027FD049042980290249904F0C9FCF3
:103F40000390049904F017FD0590069904F013FD01
:103F50000790219801460690079804F012FD0990F9
:103F60001E9880F000400490259904F004FD05900F
:103F7000459801460490059804F003FD07902098A9
:103F800003902E9904F0FDFC05901F9803902F9943
:103F900004F0F7FC0490059904F09BFC0690079947
:103FA00004F097FC0890099904F093FC4FF08341CA
:103FB0000A9004F0E6FC0B90119904F08AFC0C9036
:103FC000189801460B900C9804F00DFD80F000400D
:103FD0001B900020519024E019A9519851F820001D
:103FE0001FA90C90519851F820000B900C9904F0E7
:103FF00070FC1FAA519942F821001FA9519851F84D
:1040000020000C90519851F820000B900C9904F06E
:10401000B8FC1CAA519942F821005198401CC0B22A
:10402000519051980228D7DD1D980B901C980A904A
:104030000B9904F04EFC0C901E9801460B900C98C6
:1040400004F047FC27904598099021980890099919
:1040500004F097FC0B9044980790209806900799DD
:1040600004F08FFC0990439807901F9806900799D9
:1040700004F087FC0890099904F02BFC0A900B9936
:1040800004F027FC4FF040410C9004F07AFC26909D
:104090002699159804F01DFC0C90279904F019FC42
:1040A00022902299279804F066FC4FF07C510C90E6
:1040B00004F067FC25902599149804F00AFC2490DC
:1040C0002299279804F057FC0A90269904F001FCE5
:1040D0000B90159904F0FDFB4FF082410C9004F019
:1040E00050FC23904F98401C80B24F904F9832283C
:1040F000FFF607AE54994F98884221DA1B98099031
:104100000146089004F03DFC0B901A980790014678
:10411000069004F036FC0990199807900146069025
:1041200004F02FFC0890099904F0D3FB0A900B9936
:1041300004F0CFFB0C90559904F08CFEFFF4E1AD38
:10414000002051900BE01FA9519851F8202051995F
:10415000599840F821205198401CC0B25190519874
:104160000228F0DD229804F03CFECDE9080106F0BB
:104170001DF9CDE90A0104F047FE5A9908604F98ED
:1041800056B010BD10B504468549204604F062FEC5
:1041900004D88449204604F0EEFB10BD8249204635
:1041A00004F04EFE04D27F49204604F092FBF4E76F
:1041B0002046F2E72DE9F04F87B0824600200690B6
:1041C00001E00AF1010A9AF800002028F9D09AF8D3
:1041D00000000928F5D04FF00008DFF8D0919AF8D8
:1041E00000002D2804D1DFF8C8910AF1010A05E08A
:1041F0009AF800002B2801D10AF1010A002637465F
:1042000017E09AF80010A1F1300004F0C0FD002280
:10421000684BCDE904013046394604F0C9FCCDE9CC
:104220000201DDE9042304F01CFC06460F460AF1F6
:10423000010A9AF80000302803DB9AF800003928B8
:10424000DFDD9AF800002E282DD100215948CDE954
:1042500004100AF1010A1DE09AF80010A1F13000E3
:1042600004F095FDCDE90001DDE9042304F012FD21
:1042700032463B46CDE9020104F0F3FB06460F4609
:1042800000224C4BDDE9040104F092FCCDE904016D
:104290000AF1010A9AF80000302803DB9AF80000BE
:1042A0003928D9DD00BF0024404D9AF80000652868
:1042B00003D09AF80000452856D10AF1010A0020DF
:1042C00006909AF800002D2804D1012006900AF1EA
:1042D000010A05E09AF800002B2801D10AF1010A31
:1042E0004FF0000B08E09AF8000030380BEB8B0120
:1042F00000EB410B0AF1010A9AF80000302803DBB9
:104300009AF800003928EEDDBBF59A7F01D94FF409
:104310009A7B09E0284A294B2046294604F048FCAC
:1043200004460D46ABF1250BBBF1250FF2D209E097
:104330000022234B2046294604F03AFC04460D4651
:10434000ABF1080BBBF1080FF2D209E00022194BC8
:104350002046294604F02CFC04460D46ABF1010B27
:10436000BBF1000FF2D100BF069830B122462B46B8
:104370003046394604F08EFC05E022462B46304696
:10438000394604F015FC42464B46CDE9020104F0E3
:104390000FFCCDE9040104F037FD07B0BDE8F08F54
:1043A000DB0F4940DB0FC940DB0F49C00000F03F85
:1043B0000000F0BF000024401B695743B8179E4718
:1043C00084D797410FB400B5C1B043A80090FF2136
:1043D00001A8009B429A04F099FF01A801F042FD58
:1043E0000020009041B05DF814FB0FB400B5C1B0DF
:1043F00043A80090FF2101A8009B429A04F086FF89
:1044000001A801F024FD0020009041B05DF814FBEC
:1044100051488068704770B54F4C216804F10C001A
:104420000E1860682168451AD5B1002D04DA2046BF
:1044300001F0A5FD2168451A402D00DD40254748C3
:104440000560204601F09BFD2168294491FBF0F2B4
:1044500000FB121020602946304602F0EBF902E022
:1044600000203E49086070BD10B53C48006800B1AE
:1044700010BDFFF7D0FF00BFFAE710B501203849A3
:104480000860FFF7C8FF10BD10B502F029F901F070
:1044900066FC34A0FFF796FF02F05FF902F078F9AE
:1044A00003F0B4FAAFF23F012B4801F061FD10BDFB
:1044B00070B505460C4602F00AFA28B100232246E0
:1044C0002946254801F0A6FD204670BD2948006810
:1044D000704770B506460C46FFF7F8FF0546AC423C
:1044E00000DD2C462146304602F0B9F9204670BD69
:1044F0000FB410B5C2B045A80190FF2102A8019BDE
:10450000449A04F003FF02A804F0DCF904462146B3
:1045100002A8FFF7CDFF0020019042B010BC5DF86B
:1045200014FB704708B51448006800280CDAFFF740
:10453000CDFF30B101216846FFF7CBFF9DF80000A9
:1045400008BD4FF0FF30FBE70B4908684FF0FF3123
:10455000094A116000BFF3E7540D0020D801002084
:10456000F000002055534152543420726561647943
:104570000A000000FC010020F400002008B54FF400
:104580008050ADF8000010208DF8030003208DF856
:10459000020069460D48FCF747F84FF40050ADF8AB
:1045A000000010208DF8030003208DF802006946FA
:1045B0000648FCF739F84FF480510448FCF7E3F85B
:1045C0004FF400510148FCF7DEF808BD000C014033
:1045D00038B54FF44060ADF8000003208DF80200BC
:1045E00014208DF803006946F848FCF71DF84FF4D5
:1045F0004061F648FCF7C5F800241CE002E0032007
:1046000001F01CF94FF48061F048FCF7A0F8002895
:10461000F5D04FF48061ED48FCF7B5F8032001F0C8
:104620000DF94FF48061E948FCF7ABF8032001F085
:1046300005F9601CC4B2082CE0DB4FF40061E348CC
:10464000FCF7A1F8032001F0F9F84FF48061DF488E
:10465000FCF799F8032001F0F1F84FF48061DB4892
:10466000FCF78FF8032001F0E9F84FF40061D74818
:10467000FCF787F8032001F0E1F838BD10B586B0EB
:104680000446FFF7A5FF4FF44060ADF8100003208B
:104690008DF812001C208DF8130004A9CB48FBF7FD
:1046A000C3FFCB4804600068FCF7EAFE6846FCF7ED
:1046B0006FFF00224FF44071C5480068FCF7E2FF2D
:1046C0000020ADF804004BF6FF70ADF806004FF483
:1046D0008040ADF80C00BF4800906946BC480068B7
:1046E000FCF7E7FE0121BA480068FCF760FF2220D2
:1046F0008DF8140000208DF815008DF816000120AB
:104700008DF8170005A8FCF7E6FA21208DF81400B3
:1047100000208DF8150005A8FCF7DDFA06B010BDE5
:104720001CB5AB480068808A019000BF019800F476
:10473000E060002840D0A6480068008B009000226E
:104740004FF48061A2480068FCF79CFF019800F4D8
:10475000007020BB9E480068008800F40070F0B92B
:104760009B480068008800F48070C8B100BF98487A
:104770000068008800F480700028F8D10121944876
:104780000068FCF744FF00BF91480068008800F40F
:1047900000700028F8D18E480068FFF76FFF0BE02B
:1047A00001218B480068FCF732FF00224FF4407172
:1047B00087480068FCF766FF85480068808A20F417
:1047C00070608349096888820020834908701CBD95
:1047D00010B5FFF7A5FF10BD38B57D480068808A89
:1047E000C4B204F0010000283FD079480068008876
:1047F00020F4006076490968088001217448006847
:10480000FCF711FF00207549087075480078E8B181
:104810007448007818B974480078FF2816D1012030
:104820007049087071480078022807D1684800680C
:10483000008840F4006066490968088001226C48DD
:10484000017863480068FCF72CFF9DE1002268486E
:1048500001785F480068FCF724FF63480078FF2870
:10486000F3D0FF205D4908708EE104F002000028BB
:104870005DD0BFF3508F5D480078012820D15848A3
:104880000078E8B157480078D0B10021504800685E
:10489000FCF7C9FEBFF3508F4D480068008BC0B2D3
:1048A000009001214A480068FCF7B1FE01205149FF
:1048B00008700122810246480068FCF7E3FE35E0FB
:1048C00043480068008BC0B20090BFF3508F474848
:1048D0000078022812D14248007878B14148007827
:1048E00060B100213A480068FCF79DFE00224FF4B9
:1048F000806137480068FCF7C5FE17E03B48007848
:1049000003280DD13648007850B13648007838B1C8
:1049100000224FF480612E480068FCF7B3FE05E0EA
:10492000012291022A480068FCF7ACFE2CE104F059
:104930000400002849D001202E490870284800783A
:1049400000287DD027480078002879D027480078B3
:10495000022831DD00211E480068FCF764FE1C4877
:104960000068FCF79AFE1D4991F900200978491C5E
:1049700049B21A4B1970204909688854012114481A
:104980000068FCF744FE01201A49087010480068CE
:10499000FCF783FE114991F900200978491C49B2BE
:1049A0000E4B197014490968885401229102084875
:1049B0000068FCF767FE70E00E480078F0B1012156
:1049C00003480068FCF723FE1DE06FE0000C014087
:1049D000F8000020801A0600FE0000200E010020D2
:1049E000030100200C010020000100200101002033
:1049F000FF0000200D010020080100200121DB48FC
:104A00000068FCF7F8FDD9480068FCF746FED84975
:104A100091F900200978491C49B2D54B1970D54944
:104A200009688854D1480068FCF737FED04991F9ED
:104A300000200978491C49B2CD4B1970CD4900E0DE
:104A400008E00968885418460078401C40B21946AE
:104A5000087022E0C848007810B9C8480078A0B1B2
:104A6000C748007828B10121C0480068FCF7CFFD95
:104A700004E00121BD480068FCF7BDFDBC4800789A
:104A8000401C40B2BA49087007E00121B7480068ED
:104A9000FCF7B1FD0120B849087000BFB3480068B9
:104AA000008800F480700028F8D16DE004F0400028
:104AB00058B3AE480068FCF7F0FDAD4991F900200D
:104AC0000978491C49B2AA4B1970AA490968885447
:104AD000AC480178184690F90000C01C814206D10C
:104AE00000224FF48061A1480068FCF7CBFDA54887
:104AF00000789F4991F90010884245D19C48007880
:104B0000401C40B29A4908703EE004F0800008B3AF
:104B1000974890F90000401CE8B1954890F90020B2
:104B20000078401C40B2924B187097480068815C36
:104B30008E480068FCF7AFFD924800788C4991F9E7
:104B40000010884220D100224FF48061874800681D
:104B5000FCF798FD18E086480078401C40B2844974
:104B600008708A48017881480068FCF794FD8848FD
:104B7000007810B98348007830B900224FF4806182
:104B80007A480068FCF77EFD794890F900107D486E
:104B90000078401C81420FD1002077490870784886
:104BA000007830B100224FF4407170480068FCF783
:104BB00069FD00207749087038BD10B5FFF70CFE7D
:104BC00010BD10B5FFF7ACFD10BD10B5FFF704FE2A
:104BD00010BD2DE9FF4706460F461546984647F299
:104BE00030597006000E6C49087068480770012043
:104BF000624908700020664908706349C1F800D016
:104C00005C49C1F800D05F48057001206149087017
:104C1000102D03DD002004B0BDE8F087002405E07E
:104C200018F804000DF80400601CC4B2AC42F7DBB5
:104C30004E480068808800F40070C8B94B4800688E
:104C4000008800F4807060B900BF484800680088A0
:104C500000F400700028F8D1012144480068FCF7F6
:104C6000CAFC01224FF4407140480068FCF70AFD7D
:104C700000BF4848007820B1A9F101005FEA0009AF
:104C8000F7D1B9F1000F0AD144480088401C4349CC
:104C9000088036480068FFF7F1FC0020BBE70120E0
:104CA000B9E737B504460D4602AB01222946204636
:104CB000FFF78FFF3EBD2DE9F04105460E46174632
:104CC0001C4647F230586806000E334908702F48DA
:104CD000067000202949087001202D4908702548D8
:104CE000046029480460274807700120294908709A
:104CF0001E480068808800F40070C8B91B4800682E
:104D0000008800F4807060B900BF1848006800880F
:104D100000F400700028F8D1012114480068FCF765
:104D20006AFC01224FF4407110480068FCF7AAFCAD
:104D300000BF1848007820B1A8F101005FEA000820
:104D4000F7D1B8F1000F0BD114480088401C13496B
:104D5000088006480068FFF791FC0020BDE8F0815C
:104D60000120FBE70D48008870470000F800002094
:104D70000E010020080100200C010020020100208B
:104D80000D0100200101002004010020000100208D
:104D900003010020FE000020FF000020FC00002096
:104DA000FE4A52F82020521CFC4B43F82020FC4ABB
:104DB00052F820208A4202DAF94A42F82010F94AD1
:104DC00052F820208A4202DDF64A42F8201070474D
:104DD00038B504468DF8004000208DF801008DF8AC
:104DE000020001208DF803006846FBF774FF38BD10
:104DF00010B5ED48008820F00100EB49088000BFA5
:104E000072B6EA480068401CE849086000BFE648FE
:104E10001430048821460020FFF7C2FFB4F5487F14
:104E200021DAE34890F8E00068B1E2480088DE4902
:104E300024310880DF488088091D0880DD4800890A
:104E4000091D088007E00020D74924310880091D8A
:104E50000880091D0880D448001F008820F0010048
:104E6000D149091F088000BFD0480068401ECF49C3
:104E7000086000B962B600BF10BD10B5CE4800880A
:104E800020F00100CC49088000BF72B6C748006816
:104E9000401CC649086000BFC7481430048821463A
:104EA0000120FFF77DFFB4F5487F21DAC04890F874
:104EB000E10068B1C1480088BF4924310880BF487B
:104EC0008088091D0880BD480089091D088007E009
:104ED0000020B94924310880091D0880091D088077
:104EE000B548001F008820F00100B349091F088061
:104EF00000BFAE480068401EAC49086000B962B609
:104F000000BF10BD10B5AE48008800F001000028B9
:104F10005DD0AB48008820F00100A949088000BF9F
:104F200072B6A2480068401CA049086000BFA448AF
:104F30001430048821460220FFF732FFB4F5487F81
:104F40003BDA9B4890F8E200F8B19E4909684800B6
:104F50009D49098801449D4A11809B4989880144E3
:104F6000121D1180984909890144121D118096492A
:104F70000988934A2432118093498988121D11802F
:104F800091490989121D11800FE040F2E9308F49E3
:104F90000880091D0880091D0880002088492431E7
:104FA0000880091D0880091D08808548001F0088A9
:104FB00020F001008249091F088000BF7B4800687B
:104FC000401E7A49086000B962B600BF00BF10BD3C
:104FD00070B504460D4629462046FCF764FD294677
:104FE0002046FCF7A2FD29462046FCF7EBFD0821F0
:104FF0002046FDF7A7F908212046FDF7ACF9082166
:105000002046FDF7B5F970BD10B58CB004460320FD
:10501000ADF824000020ADF8260040F2E730ADF8EE
:1050200028000020ADF82A008DF82C0009A92046A0
:10503000FCF7FCFC4FF40060ADF804004010ADF844
:1050400006008010ADF808006148008880B2ADF815
:105050000A000020ADF80C004FF40050ADF80E002F
:105060004000ADF8100001A92046FCF7FBFF6020CE
:10507000ADF814000120ADF816000420ADF81800BA
:105080000020ADF81A00ADF81C00ADF81E004FF47A
:105090008070ADF820000020ADF8220005A9204660
:1050A000FFF796FF0CB010BD30B587B005460C4633
:1050B0000320ADF810000020ADF8120040F2E730F8
:1050C000ADF814004FF40070ADF8160004A928469E
:1050D000FCF7ACFC6020ADF800000120ADF8020048
:1050E0000020ADF80600A0B2ADF8080069462846D9
:1050F000FFF76EFF07B030BD2DE9F84F0646894631
:10510000924600213348006803F0A4FE02D83148DB
:10511000D0F800903049484603F065FC4FF08941D3
:10512000009003F02EFC834603F05BFE074605F07B
:105130002FF804462046E11704EB91518912A4EBA5
:105140008124002C01DA04F580641E490968C1F548
:10515000FA7003F00EFE8346514603F012FC8046BF
:105160001E4903F040FC074603F022FE0546204698
:10517000E11704EB91518912A4EB8121184A32F90D
:10518000111043F6FF7201FB052147F6FF7291FBF8
:10519000F2F101F5FA71316024E00000A011002065
:1051A00088110020941100201034014010010020CB
:1051B0001403002064110020102C01407011002005
:1051C000100C00401C0100207C110020340800401D
:1051D0001801002000000020DB0FC9400000C84279
:1051E000A004002004F25510C11700EB9151891260
:1051F000A0EB81218F4A32F9111043F6FF7201FBB7
:10520000052147F6FF7291FBF2F101F5FA71716029
:1052100004F2AB20C11700EB91518912A0EB812160
:10522000844A32F9111043F6FF7201FB052147F65B
:10523000FF7291FBF2F101F5FA71B160BDE8F88FF0
:1052400070B504460D461646324629462046FFF7FD
:1052500053FF70BD00BF72B6774A1268521C764B7E
:105260001A6000BF0A6802604A6842608A68826009
:1052700000BF1A461268521E1A6002B962B600BF19
:10528000704710B501466D4B1B685B00C3F57A7221
:10529000002016E051F82030684C24681B1B41F8B0
:1052A000203051F82030934201DB41F8202051F8A2
:1052B0002030624C2468A34202DA002341F82030F7
:1052C000401C0328E6DB10BD00BF72B65A490968CE
:1052D000491C594A116000BF018A21F00101018275
:1052E0000121818100BF11460968491E116001B981
:1052F00062B600BF7047FEB504460D46284603F06F
:1053000038FD0646324621466846FFF799FF694652
:105310004B48FFF79FFF4B48FFF7D6FFFEBDFEB59A
:1053200004460D46284603F024FD06463246214633
:105330006846FFF785FF69464348FFF78BFF434800
:10534000FFF7C2FFFEBDFEB504460D46284603F03A
:1053500010FD0646324621466846FFF771FF684653
:10536000FFF78FFF69463A48FFF774FF3948FFF7A8
:10537000ABFFFEBD00B53348FFF7A6FF3348FFF78C
:10538000A3FF3448FFF7A0FF00BD08B5324800680E
:1053900010B1FFF7EFFF08BD18208DF803000220C1
:1053A0008DF802000320ADF8000069462B48FBF79A
:1053B0003BF918208DF8030002208DF802008020B0
:1053C000ADF8000069462648FBF72EF90020254974
:1053D00048602549486040F2E93024494860244843
:1053E000FFF712FE1548008800F5A8701749243110
:1053F00008801D20FFF7ECFC00BF72B60E48006865
:10540000401C0D49086000BF01211948FCF76AFEE5
:1054100001211748FCF772FE00BF07480068401ED4
:105420000549086000B962B600BF01200A4908605A
:1054300000BFB0E7A0040020100100201C010020E4
:10544000641100200034014070110020002C014044
:105450007C110020000C004014010020000C0140D1
:1054600000080140A01100208811002094110020A4
:105470000004004000B587B000BF72B680480068E5
:10548000401C7F49086000BF01217E48FBF79DF961
:1054900001217D48FBF799F93820ADF81800282044
:1054A0008DF81B0003208DF81A0006A97748FBF73A
:1054B000BBF803210120FBF7CDF904210120FBF704
:1054C000C9F905210120FBF7C5F93820019000201A
:1054D0008DF8080010208DF8090001208DF80A00D1
:1054E00001A8FBF76FFC3820FBF7E3FC092000F074
:1054F000BCF80A2000F0B9F8172000F0B6F8232015
:10550000ADF80C000020ADF80E004FF6FF70ADF8BE
:1055100010000020ADF8120003A95D48FCF786FAE0
:1055200001215B48FCF7DEFD00BF55480068401EC6
:105530005349086000B962B600BF07B000BD10B59E
:105540005448006840F008005249086008214F485C
:10555000FBF7FDF8012805D14D48243000884E495D
:10556000088017E04A48243000884B490988401ACF
:1055700084B2B4F5E16F06DD41F26800844202DADC
:105580004648048003E040F6B830444908800120D2
:105590004349087010BD10B53E48006840F0100047
:1055A0003C49086010213948FBF7D1F8012805D1A2
:1055B0003748243000883B49088017E034482430BD
:1055C000008838490988401A84B2B4F5E16F06DDD5
:1055D00041F26800844202DA3348048003E040F676
:1055E000B8303149088001202D49087010BD10B530
:1055F0002848006840F02000264908602021234800
:10560000FBF7A5F8012805D1214824300088274957
:10561000088017E01E482430008824490988401A71
:1056200084B2B4F5E16F06DD41F26800844202DA2B
:105630001F48048003E040F6B8301D49088001206F
:105640001749087010BD014611B917480088704706
:10565000012902D111480088F9E7022902D1144832
:105660000088F4E740F6B830F1E700F01F020121AE
:1056700091404209920002F1E022C2F80011704705
:10568000100100200001300000023000000C014039
:1056900000040040140401402A01002022010020DF
:1056A000280100202C010020240100202E010020D0
:1056B0002601002000B585B06846FAF784FEDF4970
:1056C0000098B0FBF1F0DE490860DE48006840F069
:1056D0008070DC490860DC48006840F00100DA496D
:1056E000086005B000BD10B500BFD84850E8001FE5
:1056F000D5484368D6480268D44C44E800100028D6
:10570000F3D1981ACE4C2468B0FBF4F001EB4104BD
:10571000C4EBC11400EBC40010BD10B5CA4840680A
:10572000CB490860C9480068401CC8490860C9489E
:105730000078012877D1C8480078002873D1C7487D
:105740000088401CC549088008460088B0F57A7F6B
:1057500001DD01200880FFF7C6FF0446C04800684D
:10576000201AC0490860BE480460BC49088800EBA4
:10577000D0714910A0EB4101C1B90120BA490870AC
:1057800000F037FDB9480088B9490880B74840881B
:105790004880B64880888880B6480088B649088026
:1057A000B44840884880B34880888880AB480088E7
:1057B0000A2190FBF1F201FB120010B90120AF4960
:1057C0000870A6480088142190FBF1F201FB12003A
:1057D00010B90120AA490870A0480088642190FBF4
:1057E000F1F201FB120010B90120A64908709B4894
:1057F0000088C82190FBF1F201FB120010B90120D2
:10580000A1490870954800884FF47A7190FBF1F235
:1058100001FB120010B901209C490870FFF763FFDB
:10582000001B9B49086010BD884800687047994874
:10583000C06940F0C0509749C861704770B50021F9
:10584000814A546800BF804D6B681D1B29441C466B
:105850007B4D2D68B1FBF5F2824200D307E0801A40
:10586000774D2D68B1FBF5F605FB1611EBE700BF90
:1058700070BD10B5044603E04FF47A70FFF7DEFF09
:105880002000A4F10104F7D110BD70B5FFF712FF9D
:10589000814800684FF47A72B0FBF2F1B1F1807F79
:1058A00000D31EE021F07F40401E4FF0E022506107
:1058B00050170F22002808DA13071D0E614BE43B36
:1058C00000F00F04241F1D5503E013071C0E734B3B
:1058D0001C5400BF00204FF0E022906107201061AF
:1058E00000BF012142F61D00FAF7DAFD01216C48E4
:1058F000FAF7E3FD0020FDF746F9FDF7D3F84FF482
:10590000A060FBF7E3F9FFF740FDFEF7BDFDFEF7F2
:1059100035FE4FF400516348FAF733FF4FF47A70C5
:10592000FFF7A7FF00F0ECFF70B15FA0FEF7E0FD0E
:1059300040F6B830FFF79DFF00F0E2FF01280DD1DF
:1059400060A0FEF7D5FD09E06BA0FEF7D1FD40F6A3
:10595000B830FFF78EFF74A0FEF7CAFD7FA180A0CC
:10596000FEF7C6FD4B48006800F4003048B14A48D5
:1059700000683249B0FBF1F4214688A0FEF7B8FD7B
:1059800008E0454800682D49B0FBF1F4214691A09C
:10599000FEF7AEFD42F21070FFF76BFF4FF40051BF
:1059A0004048FAF7F0FE9A48FEF768FE00F046F924
:1059B000FFF73DFFFDF7AAFBFCF762FFFDF732FBA7
:1059C00000F0E5FD00F095FD92A0FEF791FD70BDA1
:1059D0009649096841F48071944A11609449098894
:1059E000934A121D128841EA02409049096821F445
:1059F00080718E4A116070478C49096841F480714A
:105A00008A4A11608A4A1080010C121D1180874950
:105A1000096821F48071854A1160704785480949F9
:105A2000F039086000E000BFFDE7FFF700FF8248A3
:105A3000FFF7E2FFFFF7F2FF7047000040420F0060
:105A400030010020FCED00E0001000E034010020F7
:105A5000380100209C010020C00100203C010020F2
:105A60004C010020440100203E010020AE01002036
:105A7000A8010020BA010020B40100203F0100204D
:105A8000400100204101002042010020430100208C
:105A900048010020001002402000002000E400E047
:105AA0001E004000000C01400D0A55534220737443
:105AB00061727475702064656C61792E2E2E0D0AEA
:105AC000000000000D0A4247433332206669726DC0
:105AD00077617265207374617274696E6720757086
