:020000040800F2
:1000000000A0002099400008114100087D3300083D
:100010007F33000881330008114100080000000010
:100020000000000000000000000000001141000876
:10003000114100080000000011410008355400087B
:100040001141000811410008114100081141000848
:100050001141000811410008114100081141000838
:100060001141000811410008114100081141000828
:100070001141000811410008114100081141000818
:100080001141000811410008114100081141000808
:10009000F50000101141000811410008114100084D
:1000A00011410008114100081141000811410008E8
:1000B00011410008114100081141000811410008D8
:1000C00011410008114100081141000811410008C8
:1000D00011410008ED000010114100081141000815
:1000E0001141000811410008F900001011410008F9
:1000F0001141000811410008114100081141000898
:100100000000000000000000000000001141000895
:100110001141000811410008114100081141000877
:100120001141000811410008114100081141000867
:10013000114100081141000800000000000000000B
:1001400011410008114100081141000800000000A1
:10015000000000000000000000000000000000009F
:1001600000000000000000001141000811410008DB
:100170001141000800000000000000000000000025
:0801800000000000114100081D
:10018800844641EA000313F003036DD1403A41D39A
:1001980051F8043B40F8043B51F8043B40F8043B59
:1001A80051F8043B40F8043B51F8043B40F8043B49
:1001B80051F8043B40F8043B51F8043B40F8043B39
:1001C80051F8043B40F8043B51F8043B40F8043B29
:1001D80051F8043B40F8043B51F8043B40F8043B19
:1001E80051F8043B40F8043B51F8043B40F8043B09
:1001F80051F8043B40F8043B51F8043B40F8043BF9
:1002080051F8043B40F8043B51F8043B40F8043BE8
:10021800403ABDD2303211D351F8043B40F8043B88
:1002280051F8043B40F8043B51F8043B40F8043BC8
:1002380051F8043B40F8043B103AEDD20C3205D398
:1002480051F8043B40F8043B043AF9D2043208D090
:10025800D2071CBF11F8013B00F8013B01D30B8802
:1002680003806046704700BF082A13D38B078DD0E0
:1002780010F003038AD0C3F10403D21ADB071CBFB2
:1002880011F8013B00F8013B80D331F8023B20F81C
:10029800023B7BE7043AD9D3013A11F8013B00F855
:1002A800013BF9D20B7803704B7843708B788370DD
:1002B80060467047013101EB420291420BD0030FB7
:1002C800092B94BF3033373301F8013C0023000178
:1002D80001F8023BF1E77047054BB3F8062292B2EA
:1002E800A3F80422B3F80A2292B2A3F808227047AE
:1002F8009008002008B5002003F088FB4FF40000A8
:100308000121BDE8084003F09FBB0000014B032218
:100318001A60704718020020044B9A7A044B0AB1FD
:10032800052200E001221A60704700BF78140020FF
:100338001802002007B514238DF804300B238DF81C
:10034800053000238DF8063001A801238DF8073009
:1003580003F0A8F903B05DF804FB07B588B94FF4BA
:100368008053009303238DF805308DF8070001238F
:100378004FF0904069468DF804308DF8063003F050
:100388009FF803B05DF804FB02F0FEBA402102F0CA
:1003980021BB000070B50C4E337890B093B9684615
:1003A800FFF7F4FF054668B101246846C0212A46D4
:1003B800347000F0CBFF2046294601F0CFF82046E4
:1003C80001F036F810B070BD00020020094B10B5DE
:1003D80093E8140008331B68D0180AD0064908228D
:1003E800FFF768FF204605490422BDE81040FFF7E3
:1003F80061BF10BDACF7FF1F0200002012000020F3
:1004080070B50D4E3578012D90B012D16846FFF7C2
:10041800BDFF044660B168462246C02100F096FF41
:100428002846214601F09AF8284601F001F800E034
:10043800307010B070BD00BF0002002010B5074C2E
:100448000320214601F0E0F8C1B22046FFF79CFFE7
:100458000320BDE8104000F0FEBF00BF00140020DC
:10046800074B1B68052B09D1064B1A68511C052A36
:10047800196003D100221A60FFF78CBF704700BFD4
:100488001802002004020020F0B5514C514D236899
:10049800514E9BB22B802A8833881340990589B026
:1004A80009D54FF6FF5323604C4B1A780132D2B26C
:1004B8001A70FFF7D5FF2A88338813401A0401D52C
:1004C80000F08EFE2A88338813405B0505D54FF669
:1004D800FF332360424B5B6898472A8833881A4069
:1004E800970444BF4DF6FF7222602A881340D8044F
:1004F80005D54EF6FF732360002000F0E7F92A883F
:100508003388134019050BD5364B1B7813B100F00F
:10051800BDF902E0022000F0D9F94FF2FF73236021
:100528002A8833881340DA0550D54FF6FF632360D5
:100538002D4B2E4A1B6813F4004F42D01368013329
:1005480013601368032B3ED92948016811F008018C
:1005580039D10568274BADB21D6001F1805505F50D
:10056800B855AD0008AF2E6807EB81050131B6B26A
:10057800082945F8206CF0D1196841F0010119608B
:10058800196889B20160196821F0010119601B68B6
:100598009BB2036023685B05FCD50D4B4FF6FF311A
:1005A8001960002308AC04EB830003F1805150F874
:1005B800200C01F5B8518900013380B2082B08607E
:1005C800F0D100231360072000F080F909B0F0BDD6
:1005D800445C0040401400209C1400200C020020C1
:1005E8005C000020E2000020485C0040100200206F
:1005F800405C004008020020034B9B7A13B1034B78
:1006080005221A60704700BF7814002018020020E5
:10061800014B04221A60704718020020034B1A7815
:10062800202A04BF00221A70704700BF140200205D
:1006380070470000212810B508D1114B1B681B78A2
:1006480003F07F03212B10D0022010BD2028FBD1FE
:100658000B4B0C4A1B681B78107003F07F03212B8F
:10066800094B18BF00230BB9EEE7084B044A0024D6
:1006780012682046936154829847204610BD00BFF7
:100688009814002014020020E5060008CD06000892
:10069800074B1B681B7803F07F03212B06D100F062
:1006A800DF00022814BF0220002070470220704794
:1006B8009814002009B1022070470128FBD8084689
:1006C8007047000020B9034B1B6808221A82704744
:1006D8000148704798140020D800002020B9034B27
:1006E8001B6808221A827047014870479814002036
:1006F800D800002010B5FFF769FE054B1B680024E1
:100708009C7200F099F800F06FFF024B1C6010BD5E
:100718009814002018020020354B364A1B68D279FD
:1007280010B500245A729C72DC72204600F038FE24
:1007380020464FF4007100F03BFE2046102100F0E7
:1007480045FE2046402100F0DDFE2046802100F0D5
:10075800C9FE204600F092FE274B204693F82C1045
:1007680000F00AFF204600F076FE2146012000F046
:100778001FFE0120C02100F0B5FE0120202100F05D
:1007880025FE2146012000F03AFE02204FF4C06108
:1007980000F00EFE02204FF4807100F0A3FE214607
:1007A800022000F02CFE0220202100F00FFE21463E
:1007B800032000F0FDFD03204FF4887100F0A2FE35
:1007C8000320402100F0D8FE03204FF4405100F0F0
:1007D80016FE2146032000F0F9FD204600F094FCA7
:1007E800064B0122BDE810401A60FFF775BD00BF37
:1007F80098140020124300085C0000201802002012
:10080800014900F07DBA00BFB0000020014900F0A6
:1008180077BA00BF54000020054B1B68DB78042B17
:1008280004D8044901EBC30100F06ABA00207047FC
:1008380098140020B800002008B50120FFF78DFDAE
:10084800064B074901221A60064A0020186010600A
:100858004FF4E0520A801A6008BD00BF405C0040B7
:100868009C140020445C004038B5064D01232B60E1
:10087800054B00241C602046FFF76FFD03232B6007
:10088800204638BD405C0040445C0040064B1A6876
:1008980092B242F008021A601A6892B242F0040258
:1008A8001A60FFF733BD00BF405C004010B5064C2E
:1008B80022684FF6FB7313402360FFF72DFD4FF4BA
:1008C8003F43236010BD00BF405C004010B5264C7C
:1008D800072818BF20702378052B41D8DFE803F0DC
:1008E800030B1317212C214B1B6813B9FFF7DEFFED
:1008F80036E0052335E0FFF7D9FF042323701B4BAF
:1009080001221A6010BD02236370032329E0637873
:10091800013BDBB26370637823BB134B04221A706C
:1009280010BD134B1A6892B242F010021A600523E8
:1009380023700A23637010BD6378013BDBB26370D8
:10094800637803F0FF016BB9094A10684FF6EF733B
:1009580003401360044B06221A70044B196010BD43
:100968000623237010BD00BF441400201C02002081
:10097800405C004010B5064C18B9236801221A8261
:1009880010BD044B1B681B68984720680A3010BDCF
:10099800981400209414002010B5064C18B9236848
:1009A80001221A8210BD044B1B689B689847206877
:1009B8000C3010BD981400209414002010B5214B61
:1009C80018B91B6802221A8210BD1F4A1968002034
:1009D80010800C7814F07F0413460DD14A7A9106E2
:1009E80044BF0221197012F0400F1A7814BF42F068
:1009F800010222F0010215E0012C20D0022C1FD1A7
:100A08004A7912F0800F02F00F024FEA820202F1D7
:100A1800804202F5B842126806D002F03002102A6D
:100A280007D101221A7004E002F44052B2F5805F47
:100A3800F6E7064B1B681B699847034810BD10462C
:100A480010BD00BF981400206814002094140020E2
:100A5800234A2DE9F8431468224F238A267A9046C0
:100A6800A3B9042E12D120490A78012A0AD11F4AB3
:100A780010681F4A80B202445200136030223A8044
:100A88000B7027E010233B80072623E0A58AAB42A2
:100A98008CBF022604269D4228BF1D462846A3690E
:100AA80098478146002000F03DFD2A460146484609
:100AB80000F04CFC2946002000F050FD238A5B1B07
:100AC8002382638A1D4430233B800A4B65824FF49E
:100AD80040521A80D8F800301E72BDE8F88300BF73
:100AE80098140020A014002020020020505C004030
:100AF800023000209E14002010B50A4B0A491B68DA
:100B08004978DA7891420AD3997841B99C8834B9FE
:100B18009A72064B1B685B689847204610BD0220F6
:100B280010BD00BF98140020E0000020941400209D
:100B380038B50E4A0E4C1268236892695879D978EC
:100B4800904723689A7A7AB170B91A7962B99D7810
:100B580055B9084B1B68DB68984723685A79DA72DD
:100B6800DA781A73284638BD022038BD7014002080
:100B7800981400209414002038B5314B1B6818785D
:100B880010F07F0004D15A7A22F020025A7238BD40
:100B9800022853D15A88002A51D11A79002A4ED1F5
:100BA8005A79284D22F08000840004F1804101F533
:100BB800B8412D78096812F0800F14BF01F0300198
:100BC80001F44051A84239D2002937D09B7A002B32
:100BD80034D004F1804404F5B844120623680CD5D7
:100BE80003F03003102B23D1C4B2204600F068FC78
:100BF8002046302100F0EAFB1AE003F44053B3F535
:100C0800805F15D128B9104B93F82C1000F0B4FC74
:100C180001E000F043FC236823F4804323F07003D1
:100C28009BB283F4405343F4004343F080032360B2
:100C3800064B1B685B699847002038BD022038BD09
:100C480098140020E00000205C000020941400208C
:100C580038B51F4B1F4D19682D784A7922F080044A
:100C6800A30003F1804000F5B84012F0800F00683F
:100C780014BF00F0300000F44050AC4226D24C883B
:100C880024BB18B3897A09B303F1804303F5B84349
:100C980012F0800F1A6807D022F4E04222F04002D6
:100CA80092B282F0100206E022F4804222F0700232
:100CB80092B282F4805242F4004242F080021A60FA
:100CC800054B1B689B699847002038BD022038BD3A
:100CD80098140020E00000209414002008B5064B6A
:100CE8001B685A7A42F020025A72044B1B68DB696F
:100CF8009847002008BD00BF9814002094140020D5
:100D0800054B1A68538A18B98988CB1A1382704719
:100D180008681844704700BF9814002008B50B4BAA
:100D2800002093F82C1000F027FC094B1B68187A58
:100D3800082806D1074B4FF480521A80064B102220
:100D48001A80B0F109035842584108BD5C000020E0
:100D5800981400209E140020A0140020F7B5964F88
:100D6800964B3A68964D92B213445B002E681C6805
:100D7800337A092B15D0A4B2640004F1804404F539
:100D8800C0442378337063787370A08800F026FC21
:100D9800708020892E6800F021FC2B68B080A28921
:100DA800DA802B6801221A72DA885C78002A5ED110
:100DB8001A7812F07F0237D1092C02D1FFF79CFE76
:100DC80041E0052C0FD193F90320002A01DA08230A
:100DD8004AE09A78002AFAD19A88002AF7D19B7AB1
:100DE800002B34D0F3E7032C10D1DA78012A07D08E
:100DF800744B1B6820465B699847032825D132E06D
:100E08009B88002BF4D1FFF769FF1CE0012CEFD180
:100E1800DA78012AECD19A88002AE9D15B7A990616
:100E2800E6D5FFF7A9FE0EE0012A04D10B2CDFD18D
:100E3800FFF77EFE07E0022ADAD1012CF1D0032C5D
:100E4800D6D1FFF705FF10B1D2E70028BFD13A6825
:100E58005D4B92B213445B0000221A605B4B302258
:100E68001A80062300E009232A681372D0E0062CB2
:100E780013D11A78520679D19A78524B012A02D1A5
:100E88001B68DB6969E0022A02D11B681B6A64E0FF
:100E9800032A6BD11B685B6A5FE0002C3ED159883E
:100EA800002963D15A6822F47F42B2F5003F5DD130
:100EB8001A7812F07F0204D19B88002B00F0AC80D6
:100EC80054E0012A0DD13F4A587912689269904737
:100ED80000284BD13A4B1B689B7A002B40F09C8032
:100EE80044E0022A42D15B79394803F00F010AB283
:100EF800920002F1804202F5B8420078126813F0BD
:100F0800800F14BF02F0300202F4405281422DD209
:100F180013F0700F2AD1002A7ED127E0082C03D1C4
:100F28001B785B067AD021E00A2C1FD11A7802F0D0
:100F38007F02012A1AD19A7AC2B15988B1B95A687E
:100F480022F47F42B2F5803F10D11E4A58791268C8
:100F580092699047002863D008E03BB12A680024D2
:100F6800548293612046984720460AE0154B1A6838
:100F78002B68126958789047032802D1104B1B68D8
:100F880005E02B681A8A4FF6FF718A4201D10922BF
:100F980003E0022800D012B908221A7238E093F947
:100FA800001000292EDAD98801910198824205485B
:100FB80010D9019A1A821EE0505C004004300020CB
:100FC800981400207014002002300020A014002083
:100FD800E00000208A420ED2016891F82C108A4263
:100FE80001D2002105E092FBF1F401FB142212B9B1
:100FF80001210C4A1170026892F82C209A82FFF79E
:1010080027FD05E003221A72074B4FF440521A805D
:10101800FFF784FE03B0F0BD044B9FE7044B9DE748
:10102800044B9BE7200200209E140020C5090008FD
:101038007D090008A1090008F8B52D4D2C68237A10
:10104800022B4DD0042B4BD0032B01D0052B41D1C3
:10105800A369228AABB1A2B1A68A964228BF1646D6
:1010680030469847238A9B1B2382638A334407466A
:101078006382002000F064FA32460146384600F0E8
:101088007DF9238A53B11B4B00204FF4405201468F
:101098001A8000F063FA184B30221A80238AA28A39
:1010A8009A4202D82B68032202E01BB12B68052262
:1010B8001A720CE02A6806211172104A1168104A47
:1010C80089B20A44520013600B4B30221A802B68F5
:1010D8001B7A06E0072B03D10A4B1B68DB6898478D
:1010E80008232A681372BDE8F840FFF717BE00BF4F
:1010F800981400209E140020A0140020505C00408A
:10110800023000207014002070B50D4B1D780023AC
:10111800AB4210D203F1805202F5B852940043F466
:101128000041266840F60F7241F0800132400A43C0
:1011380022600133ECE7034B40F08000186070BD7B
:10114800E00000204C5C004010B5134C23681A7A6C
:10115800022A01D0042A04D1FFF77AFC23681B7AFB
:1011680013E0062A10D15A78052A09D11A785206AE
:1011780006D1D878FFF7C8FF084B1B681B6A984749
:10118800074B1B689B689847082322681372BDE8C1
:101198001040FFF7C3BD00BF98140020941400202E
:1011A8007014002070470000074A084908B5084B2A
:1011B800136002221A72074A074B1360074A1B681A
:1011C8001160984708BD00BF981400208C000020CB
:1011D80078140020701400205C0000209414002073
:1011E80073B50023ADF80630504B1A68504B91B2D6
:1011F8001204198040F197801A884E4C02F00F02B1
:101208002270002A61D14C4C4C4E22684C4D92B24F
:101218003280328802F030022A80328802F440524A
:10122800328021684BF6BF720A4082F4005282F085
:10123800200242F4004242F0800222601B88D80655
:1012480007D4226848F60F7313402360FFF77CFF2A
:101258001BE023689BB2ADF80630BDF806301905CF
:1012680007D5226840F68F7313402360FFF776FD99
:101278000BE0BDF806301BB2002BB5DA226840F649
:101288008F7313402360FFF7D7FE22684BF6BF73B6
:1012980013403288D204328848BF83F480539604BE
:1012A8002A8848BF83F40053D4062A8848BF83F0AD
:1012B8001003900648BF83F0200343F4004343F033
:1012C80080031D4A9BB213602DE0930003F1804315
:1012D80003F5B843196889B2ADF80610BDF80610D1
:1012E80009B2002909DA186840F68F7101401960BF
:1012F800013A144B53F822309847BDF806301906C6
:101308007FF572AF21788B0003F1804303F5B84372
:1013180048F60F72186802401A6001390A4B53F8F0
:101328002130984760E702B070BD00BF445C0040C0
:101338004014002074140020005C00409E1400201B
:10134800A0140020380000201C00002030B501F156
:101358000051013201F540515210490000239342D7
:1013680000F1020009D010F8015C10F8024C44EAC0
:10137800052421F823400133F1E730BD10B501F110
:101388000051013201F540515210490000239342A7
:1013980005D051F8234020F813400133F7E710BD7A
:1013A8004FF6F873014A034013607047505C0040E1
:1013B800800000F1804000F5B840036823F4EC4356
:1013C80023F0700319438BB203607047800000F16B
:1013D800804000F5B840CA06036823F4E04323F0D0
:1013E80040039BB248BF83F010038A0648BF83F0CE
:1013F800200343F4004343F08003036070478000F8
:1014080000F1804000F5B840CA04036823F4804323
:1014180023F070039BB248BF83F480538A0448BF0B
:1014280083F4005343F4004343F0800303607047A0
:10143800800000F1804000F5B840036823F4E043E1
:1014480023F040039BB283F0300343F4004343F09E
:10145800800303607047800000F1804000F5B840C9
:10146800036823F4804323F070039BB283F4405352
:1014780043F4004343F0800303607047800000F1A9
:10148800804000F5B840036823F4F8731B051B0D72
:1014980043F4004343F0800303607047800000F189
:1014A800804000F5B84003685B0408D5026840F640
:1014B8000F73134043F4404343F0800303607047C5
:1014C800800000F1804000F5B84003685B0608D54D
:1014D800026840F60F73134043F4004343F0C0031F
:1014E80003607047064B1B689BB203EBC00000F11A
:1014F800005000F54050490840004900016070471D
:10150800505C0040054B1B689BB203EBC000044BCA
:10151800034449085B00490019607047505C00406B
:1015280004300020054B1B689BB203EBC00000F1A0
:10153800005000F54050400000887047505C004063
:10154800044B1B689BB203EBC000034B03445B00D6
:1015580018887047505C004004300020044B1B681A
:101568009BB203EBC000034B03445B001960704758
:10157800505C0040023000200E4B1B689BB203EB0E
:10158800C0000D4B3E2903444FEA430209D94B09D9
:10159800C80604BF03F1FF339BB29B0243F4004328
:1015A80005E04B08C90744BF01339BB29B02136097
:1015B800704700BF505C004006300020054B1B6898
:1015C8009BB203EBC000044B03445B001868C0F3F4
:1015D80009007047505C004006300020C3B2000A82
:1015E80040EA032070470000044B054A00201860B9
:1015F8004FF43F431380034A13607047445C004034
:101608009C140020405C004070B500F07F0528461F
:101618000E46FFF7D3FF04462846FFF791FF224600
:1016280001463046FFF7AAFE204670BD044B1A88D3
:1016380001321A80034B1A8842F020021A80704740
:10164800220200202402002008B506484FF4005169
:1016580001F078FF044BD0F1010038BF002018706A
:1016680008BD00BF0008004828020020012801D159
:1016780000F086B87047000038B514484FF40051A0
:1016880001F060FF124BC8B11D8865B1114A10788E
:10169800114618B9104A10780130107000221A80CB
:1016A8000A700E4B0CE00C4C207870B10B4A138872
:1016B80001339BB2322B138004D838BD1A8801320B
:1016C8001A8038BDFFF7D2FF257038BD00080048E2
:1016D8002602002028020020290200202A020020D9
:1016E80000234370017001207047000010B5037893
:1016F8000024012B44700ED0022B1AD14FF08040E9
:10170800214602F0AFFB4FF08040214602F0ACFBCF
:101718004FF0804008E00E48214602F0A3FB0C4839
:10172800214602F0A1FB0A482146BDE8104002F01C
:101738009DBB2146074802F093FB2146054802F06D
:1017480091FB21460348BDE8104002F08DBB00BF65
:1017580000040040002C0140437853B1C2888388BC
:101768001344827813449BB2FE2B94BFDBB2FF2351
:10177800437070478278427000224281FFF7ECBFC5
:1017880010B50024064BE058437813B1FFF7AEFFBD
:1017980001E0FFF7EFFF04340C2CF3D110BD00BFBC
:1017A800E4000020F8B54A1105462E4C00786B7805
:1017B80034F8122001F5AA460128A1F5AA4706F136
:1017C800550603FB02F11BD0022830D1C6F34A1696
:1017D8004FF08040490B02F045FB34F81630697829
:1017E800563F5943C7F34A174FF08040490B02F060
:1017F8003DFB34F8173069784FF0804059432CE0AE
:10180800C6F34A161848490B02F02CFB34F8163078
:1018180069781548563F5943C7F34A17490B02F0F0
:1018280025FB34F8173069780F48594315E0C6F39B
:101838004A160E48490B02F013FB34F81630697843
:101848000A48563F5943C7F34A17490B02F00AFBA7
:1018580034F81730697805485943490BBDE8F84012
:1018680002F002BB8043000800040040002C014045
:10187800014B00229A7070475002002090F8013105
:10188800FF2B04D05A1C80F801211844817070473E
:1018980008B500210C2305480A4600F05DFF0448FE
:1018A80001F023F8BDE8084000F014BA74060020DF
:1018B8009008002000B5C3B0432301468DF80530D9
:1018C80001A800238DF805318DF80430FFF7D6FF05
:1018D800034B01A9186800F0C3F943B05DF804FB95
:1018E8006802002008B56FF0040002F0D1F805483E
:1018F80002F0DAF8012002F0F1F80120BDE8084012
:1019080002F0D8B8405489000B4A002310B5136080
:101918000A4B11689C680A4B01FB0331091B42F210
:10192800283404FB0011054C1068A46800FB033040
:10193800001B8842F7D310BD5402002010E000E0DD
:101948004054890010B50306C2B004460ED4722371
:101958008DF8053001A800238DF805318DF8043085
:1019680000F0A6FA4FF47A70FFF7CEFF104801F0A6
:1019780009F814F0010402D001F060F8FEE70D4800
:1019880002F09AFA01F0C2FE0B4B20461C605C6024
:101998009C6001F0E5FE012383F31088074B1B6868
:1019A80083F30888064B1B68984742B010BD00BFF8
:1019B800900800200038014010E000E000D8FF1F28
:1019C80004D8FF1F08B50A46402381B2502000F012
:1019D8000FFC18B10520FFF797FF012008BD10B5CF
:1019E80090B000F0D7FB68460021402202F00CFCC2
:1019F8000024204669464034FFF7E4FFB4F5004F61
:101A0800F7D110B010BD000002484FF480510022F9
:101A180001F09EBD0004004802480421002201F0A4
:101A280097BD00BF0004004808B5FFF7EDFFFFF7BA
:101A3800F3FF044A00231370034A1380034A137008
:101A480008BD00BF5E02002064020020630200207F
:101A580008B5064B1880064B1970064B1970064BD3
:101A680001221A70FFF7D0FF08BD00BF64020020F2
:101A7800620200205D0200205E02002070B5254E43
:101A8800254CB6F9003043B3244A237812789A4299
:101A98001BD8234D2B784BB1FFF7B6FF0023214805
:101AA8002B700421012201F053FD0CE01D484FF476
:101AB8008051012201F04CFD01232B703388013B3A
:101AC8003380FFF7A9FF002321E00133DBB2052BA8
:101AD80023701DD9FFF7A0FF70BD237873B1013BB8
:101AE800DBB22370A3B901220E484FF4805101F0F4
:101AF8002FFD0D4B1A880D4B1A8070BD0A4B1A88A2
:101B08000A4B1B889A4203D0FFF77EFF06232370F7
:101B180070BD00BF640200205D0200206202002048
:101B28005E02002000040048D0020020600200206D
:101B3800037890F801219A4203F10102027002D958
:101B480018448078704700207047000070B504463C
:101B580000680368DB680D469847002874D023792D
:101B6800012B12D002D3022B30D06DE0206803681D
:101B78005B6898473E282068036803D11B6898472C
:101B8800012364E05B6998475EE020680368DB68CE
:101B98009847022858D9206803681B68984720721C
:101BA800206803681B689847E080237A2068E588E6
:101BB80013FA85F503681B689847EDB2854248D14A
:101BC800E3889BB2FF2B44D8022340E02068E688D4
:101BD8000368DB689847B6B2864235DA237A6B70B9
:101BE800002385F801312B70E38895F801219BB219
:101BF8009A4208D2206803681B689847014628461D
:101C0800FFF73CFEF0E70023237195F801211E46FB
:101C1800D9B2914205D2E918013389780E44F6B257
:101C2800F6E7206803681B68984786420AD10B4B81
:101C380020681A8822F020021A8003689B69984756
:101C4800012002E0FFF7F2FC002040B270BD2371D2
:101C5800FAE7FFF7EBFC00202071F6E724020020EA
:101C680070B5046823680D469B6820463E21984756
:101C7800236869789B6820469847236895F801117E
:101C88009B682046984795F801116A7823681144A3
:101C98009B682046C9B29847002395F8012121681E
:101CA8005E1CDBB2934206D22B448A6899782046A0
:101CB80090473346F1E700238E681946D8B2904220
:101CC80005D2E818013380780144C9B2F6E7204606
:101CD800B04770BD084B0948094A1A6019460022E6
:101CE80041F80C0F07481A71016007491A740A7005
:101CF800064A1360704700BF700200209008002059
:101D0800740600208C0200206C020020680200206B
:101D1800F8B5464C00266671417884F80561332988
:101D28000546267112D008D8142957D032296FD108
:101D38002046294600F0E2FB6FE056291DD07229A3
:101D480002D046294FD063E0012600E0022695F82C
:101D58000131032B0DD12846FFF7EAFE0746284636
:101D6800FFF7E6FE2846FFF7E3FE27B946F08006B0
:101D780001E0002B51D1304644E06171201D1E2145
:101D8800FFF77CFD201D3146FFF778FD201D314609
:101D9800FFF774FD201D3146FFF770FD201D314609
:101DA800FFF76CFD201D3146FFF768FD204B1968D1
:101DB800204B1B68CB1A59425941201DFFF75EFD85
:101DC80094F805012044063031460B2202F01CFA33
:101DD80094F805310B3384F805311EE02046294676
:101DE80000F060FB19E0FFF7A3FE95F801212B78BE
:101DF8009A420AD1FD2810D1FFF7F1FD6878FFF764
:101E080059FD0120FFF79EFD07E0FFF70FFC04E0F6
:101E180006480622002300F00BFB637923B1044B2C
:101E280005491868FFF71CFF0020F8BDD402002000
:101E3800680200208C020020D802002030B5174D1F
:101E4800C3B000232B702A78154B164C012A1DD8D5
:101E58000C214A4399189B582160A3B112480021CC
:101E6800032202F0D1F9206801A9FFF76FFE50B1F3
:101E780001A8FFF74DFF0028F5D00A4B01A9186803
:101E8800FFF7EEFEEFE72B780133DBE7074A12781E
:101E98000C2101FB0233236043B030BD66020020F1
:101EA8007002002068020020880200206C020020D6
:101EB80038B5084D2B6804461BB128462146FFF764
:101EC800CFFEEB682BB121460348BDE83840FFF749
:101ED800C7BE38BD700200207C02002000F0A2BFFF
:101EE80030B58DB0054603A80C4600F0E9FD034661
:101EF800287020BB01A803A9802200F0C7FE287023
:101F0800E8B99DF80D3023709DF80E3063709DF888
:101F18000F30A3709DF81030E3709DF815302371D1
:101F28009DF8163063719DF81730A3719DF818302D
:101F3800E3719DF81930237200F0E1FF28702878CA
:101F4800D0F1010038BF00200DB030BDF0B5044617
:101F58008DB00B480D4617461E4600F0B1FD2070A7
:101F680058B9009502A806493A46334600F063FE80
:101F7800207010B900F0C3FF207002480DB0F0BD0A
:101F88009002002091020020022A2DE9F8438146A0
:101F98001E4605D0052A35D10927DFF8748002E0EE
:101FA800DFF8708003270A463346203152F8040BC5
:101FB80043F8040B8A42F9D1002418F8042002F0EF
:101FC8000B01032902F00F031ED00B2B1CD012F0BB
:101FD800100F14BF4022002248463146FFF7B6FFD3
:101FE80099F800208AB90546334600F1200155F8D2
:101FF800040B43F8040B8D42F9D10134E3B2BB4220
:10200800DBD302E0012200E0E2221046BDE8F883BB
:10201800F3000020F0000020044B1B688360044B91
:102028001B684360034B1B6803607047ACF7FF1FD6
:10203800B0F7FF1FB4F7FF1F38B5064D064C074B26
:102048002360284601F09CFA28462146BDE838401E
:1020580001F0B0BA00540040B40200203512E81074
:1020680038B5064D064C074B2360284601F088FA20
:1020780028462146BDE8384001F09CBA005400408B
:10208800B4020020A128C36008B54FF090400F218A
:10209800002201F062FA4FF090400E210022BDE8C4
:1020A800084001F05ABA000010B5064C0621204637
:1020B800042201F052FA204607210422BDE810400C
:1020C80001F04BBA000400482DE9F3412C4B0024E1
:1020D80010201C8001F08AFC4FF4C020012101F07F
:1020E8009BFC02AD4FF40010012101F0ADFC01266C
:1020F8004FF0020803274FF4004369464FF0904021
:102108008DF805708DF8074045F8083D8DF8048076
:102118008DF8066001F0D4F94FF4804369464FF01A
:102128009040009301F0CCF98DF80570154F8DF8AB
:10213800048040233846694600938DF806608DF880
:10214800076001F0BDF9802338466946009301F025
:10215800B7F90D490D4ACC604C608C600C614C613C
:102168008C610B4C0A60204601F024FA2046314667
:1021780001F050FAFFF798FF02B0BDE8F08100BF08
:10218800D002002000040048B40200203512E810F4
:102198000054004008B5FFF777FFFFF785FF0248B6
:1021A800BDE8084001F03FBA0054004070B50D4D3D
:1021B80042F2107306462B600B48314601F057FA7D
:1021C80068B92C68631E2B60002CF5D1074B0648B4
:1021D8001A8801321A8001F026FA204670BD0120C3
:1021E80070BD00BFFC00002000540040D002002059
:1021F8002DE9F347294C46001D464FF40053B4F827
:102208000080274800930F464FF08073314692466E
:10221800022201F012FA0220FFF7C8FFA14608B90E
:10222800002038E01E48390A01F01CFA0220FFF7A6
:10223800BDFF0028F4D01A48F9B201F013FA802043
:10224800FFF7B4FF0028EBD000230093EAB214484C
:1022580031464FF0007301F0F0F954465544AC4252
:102268000AD00220FFF7A2FF0028D9D00C4814F8A2
:10227800011B01F0F7F9F2E72020FFF797FF00288C
:10228800CED00748202101F0F8F9B9F80000B0EBEA
:1022980008035842584102B0BDE8F087D002002038
:1022A8000054004030B589B0684601F0E9FC03A845
:1022B80001F0CCFD4FF0804001F01CFC4C4801F0CF
:1022C80019FC4C4801F016FC4B4B1B78012B4FF4C2
:1022D8000063019303D10023ADF8003003E001232C
:1022E800ADF800300023ADF80830694620234FF0E0
:1022F8008040ADF8023001F07DFC69463C4801F0B1
:1023080079FC69463B4801F075FC0223012400254D
:10231800ADF8183003A970234FF08040039305955A
:10232800ADF8104001F000FD4FF08040082101F0A9
:10233800A5FD03A94FF0804001F02CFD4FF080402F
:10234800082101F0A2FD03A94FF0804001F056FDDD
:102358004FF08040082101F09EFD03A9244801F0B8
:10236800E3FC2348082101F089FD03A9204801F076
:1023780011FD1F48082101F088FD03A91C4801F040
:102388003DFD1B48082101F086FD0423ADF81050DF
:1023980003A908251748ADF81230ADF81A5001F016
:1023A80085FC2946134801F063FD03A9114801F093
:1023B800BBFC29460F4801F061FD03A90D4801F057
:1023C800E9FC29460B4801F060FD2146094801F067
:1023D80069FD21464FF0804001F05BFC214604482E
:1023E80001F057FC0348214601F053FC09B030BD09
:1023F80000040040002C014000010020034B1A7823
:10240800824202D01870FFF74DBF704700010020CC
:1024180038B5044690F80101204402301546FDF70E
:10242800AFFE94F801311D4484F8015138BD000015
:1024380073B502AD044645F8043D092343710023F2
:1024480080F8053104F8043F16462046FFF716FACF
:1024580020463146FFF712FA204629460422FFF7A4
:10246800D7FF054B04224FF0FF3006211A70FFF703
:10247800EFFA02B070BD00BF6302002010B5074B31
:1024880003600446002106484FF4267201F0BCFEA2
:102498002068BDE81040FFF721BD00BFB30200204F
:1024A800DC03002030B51423437187B0002380F883
:1024B80005310371694604460068FFF711FD0146BE
:1024C80018B96846092201F09FFE043469460922BA
:1024D8002046FFF79DFF03A8FFF79EFD204603A9AE
:1024E8000C22FFF795FF302520460021013DFFF71C
:1024F800C5F915F0FF05F7D107B030BD30B50D4669
:1025080089B003316B460446AA780B48FFF73CFDB7
:102518006978034650B984F8050120466171202284
:1025280000F8043F6946FFF773FF03E020460422E2
:10253800FFF77EFF09B030BDB3020020014B024A0D
:102548001A607047D4020020B3020020B0F8143299
:1025580010FA83F0007C7047B0F81622B0F81432F5
:1025680092B29BB2D01AC0B27047B0F81022B0F83D
:10257800123292B29BB2D01AC043C0B2704790F8E0
:1025880018321844012380F81932704738B5B0F86A
:10259800143210FA83F301221D7C836893F82430E7
:1025A80059B2490903F01F0302FA03F32031154A0F
:1025B80042F82130B0F81422B0F8163292B29BB229
:1025C8009A4204460CD0B0F814329BB201339BB245
:1025D800A0F81432B0F81432DBB2A0F8143201E0DB
:1025E800FFF724F8A36893F82430012259B203F0C6
:1025F8001F0302FA03F34909024A284642F8213028
:1026080038BD00BF00E100E010B50446236820464D
:10261800DB68984718B9BDE81040FFF707B823688A
:1026280020465B6898473E28F5D0236820461B68FB
:102638009847EBE738B504460D46236820461B69E2
:1026480098470028F9D0B4F81032A16814FA83F337
:10265800012283F8105191F8243003F01F0043F34E
:10266800C40323F0604323F0030303F1604303F53D
:10267800614302FA00F0C3F88000B4F81052ADB21A
:102688001544ADB2A4F81052B4F81052EDB2A4F843
:1026980010521860086A0249BDE8384001F0BDBC14
:1026A8000701070030B54379013BDBB2042B9CBF1F
:1026B800264A52F823508368044687B0186A4FF0B8
:1026C800000188BF4FF4E13501F09EFCA368186A49
:1026D80001F0F2FB002394F8182202930593E368B3
:1026E8000493009502F0FF032AB14FF4805301933D
:1026F8004FF4806300E001930393A3686946186A66
:1027080001F026FCA3684FF48051186A01F09BFC85
:10271800B4F812320E4A9BB2A4F81032B4F814324C
:102728009BB2A4F8163223790C2101FB0323002263
:102738001A71A3680121186A01F066FCA3680549AB
:10274800186A012201F069FC07B030BD8053000807
:1027580070020020050105001FB5C3602D4B4271B2
:102768002822017102FB0131002380F818328B689E
:102778008160044688690121184301F04DF94FF43E
:102788008040012101F054F9A3685869197C1A7F27
:1027980000F0E3FE02238DF80C3003238DF80D3092
:1027A800A368DA895869029202A901228DF80E20DD
:1027B8008DF80F2000F084FEA368586808B9042239
:1027C800E260E2680C2A0FD199781A7B00F0C5FE06
:1027D800A3681A8802925868002202A98DF80E2070
:1027E8008DF80F2000F06CFEA36893F824308DF864
:1027F80004300A238DF8053000238DF8063001A82F
:1028080001238DF8073000F04DFF2046FFF74AFFFF
:1028180004B010BDC0530008014B024A1A6070474B
:1028280074060020A0530008B0F8043210FA83F0B0
:1028380000797047B0F80622B0F8043292B29BB221
:10284800D01AC0B27047B0F80A22B0F8083292B273
:102858009BB2D01AC043C0B27047704738B504461F
:102868000D46236820461B6998470028F9D0B4F81C
:102878000A3214FA83F383F80451B4F80A329BB28B
:102888000133DBB2A4F80A3238BD10B5B0F804221F
:10289800B0F8041210FA82F289B21479B0F806225C
:1028A80092B2914207D0B0F8042292B20132D2B269
:1028B800A0F8042201E0FEF7B9FE204610BD10B5CD
:1028C800044623682046DB68984718B9BDE81040DD
:1028D800FEF7ACBE236820465B6898473E28F5D0D3
:1028E800236820461B689847EBE730B5044601206B
:1028F80085B0014601F09CF84FF40030012101F049
:102908008BF84FF4C0530093032300258DF805304E
:10291800694602234FF090408DF804308DF8065038
:102928008DF8075000F0CCFD4FF090400B210E229F
:1029380000F013FE0C210E224FF0904000F00DFE27
:10294800122000F0B1FD12230293082302A88DF88B
:102958000D3001238DF80E308DF80C5000F022FD5B
:10296800FDF7C8FCFDF7E6FCFEF71EFCB4F80632DE
:102978009BB2A4F80432B4F80A329BB2A4F8083225
:1029880005B030BDFDF770BF30B500228A421DD2B8
:102998000F4BB3F80452B3F80642A4B20134ADB2F7
:1029A800E4B2A54203D1BDE83040FEF73FBEB3F81C
:1029B8000642855C13FA84F401322571B3F80642A5
:1029C800A4B20134E4B2A3F80642DFE730BD00BF89
:1029D8009008002030B502460020134BB3F80A5285
:1029E800B3F80842ADB2A4B22C1B14F0FF0F1AD0F2
:1029F800B3F8084213FA84F4013094F8044102F859
:102A0800014BB3F80842A4B2013480B2E4B2884260
:102A1800A3F8084207D0B3F80842B3F80A32A4B2C0
:102A28009BB29C42D9D130BD90080020014B024A8C
:102A38001A60704790080020F053000800F020BE8C
:102A48002DE9F04100242346A5B2854218D20F5D36
:102A5800082601253D424FEAD33C0CBF4FF0000841
:102A68004FF001085B00E0459BB21CBF83F40043B4
:102A780083F005036D00013EEDB2EBD10134E3E7CD
:102A880013701B125370BDE8F08137B50578023D0D
:102A98000446EDB201AA28462146FFF7D1FF9DF86A
:102AA8000420635D9A4208D12C449DF805006378A0
:102AB800984214BFE520002000E0E52003B030BDB7
:102AC80010B5044600F028FAD0B90420214600F0D9
:102AD800EDF9A8B92378042B09D16378112B08D113
:102AE800A378332B07D1E378432B04D110BDE4241A
:102AF80002E0F02400E0E5244620FEF705FF20462A
:102B080010BD10B50C4600F0F8F938B100F0F7F92F
:102B18002046FFF7D5FF002808BFE82010BD2DE9A3
:102B2800F04F85B09B469DF838300778C3EB431AC1
:102B380003EB8A0A06464FEACA0AB81EC0B20AF16F
:102B4800250A1FFA8AFA0D46144631463218CDF87E
:102B580004A0FFF775FF4FF003084FF0E00A08F1F3
:102B6800FF3818F0FF080ED0BAF1000F0BD0384626
:102B7800314600F0FFF9824638B128462146FFF772
:102B8800C0FFE728EBD1504652E05846FEF7BCFE9E
:102B98004FF0030909F1FF3919F0FF09DFD00023CD
:102BA800DAB2AA4203D20022E2540133F8E7019BC9
:102BB800ADF80E302846214600F078F9BDF80E2011
:102BC80092B2253A92B2ADF80E20BDF80E2092B21C
:102BD800252A824602D9E72802D1EBE7E72821D047
:102BE800BAF1E40F11D02046FFF74FFF824660B9D3
:102BF8002278042AC7D86278032A0FD00F2A0FD068
:102C0800FF2AC0D14FF0D40AA9E728462146FFF78A
:102C180078FF0028BED0E828A1D0B4E7D22007E08A
:102C2800D32005E028462146FFF76BFFE72896D119
:102C380005B0BDE8F08F70B50C46049920B31CB3FD
:102C480012F0880F20D112F0010500D1E1B107265A
:102C580006700826C370F34046708270037155B938
:102C68000B46421D203153F8045B42F8045B8B424B
:102C7800F9D12723037018230493224623210B2319
:102C8800BDE87040FFF74BBFE22070BD13B50C469E
:102C980050B349B312F07C0F26D112F003014FEA6A
:102CA800930301D11F2B06E0012901D10F2B02E06C
:102CB800022901D17F2B17D8072103F07F0312F0D7
:102CC800800F017082704FF00201C3704FF0040250
:102CD8004FF00003417003710CBF072123210092BC
:102CE8002246FFF71CFF00E0E22002B010BD000002
:102CF8002DE9F341484D494C0E4629784FF40053CD
:102D080007469046009346484900012236BB4FF0DB
:102D1800007300F092FC42F21073236040480221D5
:102D280000F0A5FC30B923685A1E2260002BF5D1AB
:102D3800E7206DE03A48394600F094FC42F21073FF
:102D480023603748202100F092FC002842D12368F4
:102D58005A1E2260002BF4D1E62059E04FF0807310
:102D680000F06BFC42F2107323602D48022100F042
:102D78007EFC002834D02A48394600F073FC42F221
:102D8800107323602648802100F071FC70B3297805
:102D9800234800250095490032464FF0007300F0A3
:102DA8004CFC42F2107323601D48022100F05FFCC6
:102DB80010B318F805101A48013500F053FCEBB2AF
:102DC8009E42EED142F2107323601548202100F094
:102DD8004EFCB8B11248202100F04FFC002017E04B
:102DE80023685A1E2260002BBFD1A1E723685A1E10
:102DF8002260002BC6D19BE723685A1E2260002B55
:102E0800D2D195E723685A1E2260002BDDD18FE7C7
:102E180002B0BDE8F08100BF9C0A00200401002038
:102E280000540040014B64221A7070479C0A00202D
:102E380037B51B4B1B4C19784FF4105300930546BC
:102E48004FF0007318484900012200F0F6FB42F2E7
:102E5800107323601448042100F009FC30B923687A
:102E68005A1E2260002BF5D1E72017E00E4800F02B
:102E7800FBFB42F21073287023600B48202100F0FE
:102E8800F6FB30B923685A1E2260002BF5D1E620E4
:102E980004E00548202100F0F0FB002003B030BD1D
:102EA8009C0A0020040100200054004037B5054664
:102EB8000DF107000C46FFF7BBFFB8B99DF80730C6
:102EC8002370032B11D9AB420FD8601C9DF8073033
:102ED800013BDBB28DF807302BB1441CFFF7A8FF8C
:102EE80020B92046F2E7184600E0E42003B030BDE0
:102EF800002001460246FFF7FBBEFFF7F9BF00219D
:102F080010B50A460120FFF7F3FE04460120FEF73C
:102F1800FBFC204610BD000013B5FFF7A1F84FF4E5
:102F2800105300931148124C4FF0007300210122F6
:102F380000F083FB42F2107323600C48102100F06C
:102F480096FB30B923685A1E2260002BF5D1E62083
:102F580009E00648102100F090FBFFF76DF8032008
:102F6800FEF7D2FC002002B010BD00BF00540040A4
:102F78000401002003460A4603201946FFF7B8BE9D
:102F880007B54FF4C06000F083FB0A4AD3680023FA
:102F980082F8233001A825228DF805308DF80630F7
:102FA80001238DF804208DF8073000F07BFB03B077
:102FB8005DF804FB00ED00E02DE9F74F4FF4003019
:102FC800012100F029FD4FF48040012100F030FD7F
:102FD8004FF090400921072200F0BFFA07224FF076
:102FE80090400A2100F0B9FA022500274FF00308A3
:102FF8004FF4007369464FF090400124864E0093C9
:103008004FF4806B8DF804508DF805808DF80670AC
:103018008DF8077000F054FA69464FF09040CDF8EB
:1030280000B08DF806408DF8074000F049FA2146B7
:103038004FF4802000F0F0FC4FF48053304669468E
:1030480000938DF804408DF806708DF805508DF8C2
:10305800074000F035FA21464FF4802000F0DCFCF0
:103068004FF0040930466946CDF800908DF80440C9
:103078008DF806708DF805508DF8074000F020FA9D
:1030880021464FF4002000F0C7FC4FF4005A69466F
:103098006248CDF800A08DF804708DF805508DF8C1
:1030A80006408DF8074000F00BFA21464FF48020C7
:1030B80000F0B2FC30466946CDF800B08DF8044007
:1030C8008DF806708DF805508DF8075000F0F8F966
:1030D80021464FF4003000F09FFC214622464FF075
:1030E800904000F03AFA294622464FF0904000F00E
:1030F80034FA224641464FF0904000F02EFA6946D5
:103108004FF090408DF804508DF805808DF80670CA
:103118008DF80740009500F0D3F969464FF09040CC
:10312800CDF8009000F0CCF9082369464FF09040A4
:10313800009300F0C5F921464FF4C02000F06CFC64
:1031480049462A464FF0904000F007FA3046394683
:103158002A4600F002FA2A463046214600F0FDF9D8
:10316800102369464FF0904000938DF804508DF875
:1031780005808DF806708DF8074000F0A1F93046FB
:103188006946009400F09CF930466946009500F0C5
:1031980097F921464FF4802000F03EFC30460D217F
:1031A800062200F0DAF930460E21062200F0D5F9A1
:1031B8004A4630460F2100F0D0F9304669468DF86E
:1031C80004508DF805808DF806708DF80740CDF80D
:1031D80000A000F075F94FF480433046694600932B
:1031E80000F06EF94FF4004330466946009300F052
:1031F80067F921464FF4006000F01AFC204621468A
:1032080000F022FC2846214600F01EFCFFF7B8FE1D
:1032180003B0BDE8F08F00BF000400480008004874
:1032280038B5FFF7C9FEFEF75DFBFFF73BF8FEF781
:103238004BFF1548154DFFF721F9FEF729FBFEF75F
:10324800F3FB0120FFF7DAF811484FF480610122FF
:1032580000F07EF9FEF7F8F90024E1B26868FEF79D
:103268003FFA55F8040F002383700134FEF774FA0F
:10327800032CF2D1074B02221A700A200421BDE860
:103288003840FEF7E5BB00BFD4020020E000002074
:10329800000400486302002010B502F0B5F80C4A9B
:1032A8001388591C11800A22B3FBF2F102FB113377
:1032B800084A9BB21370084A52F8233004469847CC
:1032C80002F0A2F8001BB0F5487FF9D310BD00BF8B
:1032D800A40A00205C0200205843000808B500F04A
:1032E80033F8FFF79DFFFFF7D7FFFCE7FEF7C6BBF4
:1032F800FEF7A4BD38B50E4C04F10C0560684378A0
:1033080043B143895A1C428140F2E242934201D9B7
:10331800FEF7ECF954F8040F437833B1054B1968FC
:10332800C831196089B2FEF73DFAAC42E6D138BD22
:10333800E0000020A00A0020FEF79EB97047704701
:103348007047704770477047074A084B10B59A6036
:1033580014460023064A9958E1500433981802F598
:10336800C4618842F6D310BD000C002000ED00E0D7
:1033780000000008FEE7FEE7FEE7000070B5074B17
:10338800074DED1AAD1000241E46AC4204D056F885
:10339800242090470134F8E770BD00BF505400085E
:1033A800605400088379026870B50479002B64D0F2
:1033B80022F01F0101F1804101F5823101230D68DE
:1033C80002F01F0203FA02F225EA02020A60056807
:1033D800324A25F01F0105F01F058E5803FA05F53E
:1033E80026EA05058D50056804F1804225F01F0185
:1033F80002F5823205F01F05545803FA05F52543F6
:1034080055500168264D21F01F0201F01F01545943
:1034180003FA01F124EA010151510168214C21F01C
:103428001F0201F01F01165903FA01F126EA0101F2
:10343800115142790168102A12D121F01F0201F0BE
:103448001F01565903FA01F131435151016821F026
:103458001F0201F01F0110598B400343135170BD27
:1034680002F1804221F01F0002F5823201F01F01B3
:1034780014588B402343135070BD04F1804322F04D
:103488001F0103F5823302F01F025858012404FA81
:1034980002F220EA02025A5070BD00BF0404014043
:1034A800080401400C04014020F01F02012300F031
:1034B8001F0003FA00F0014BD0507047140401407C
:1034C800F0B500230E681A460125954005EA060462
:1034D800AC4231D10D796F1EFFB2012F1AD887681F
:1034E8004FF0030C0CFA03FC27EA0C07876091F8ED
:1034F80005C087680CFA03FC4CEA070787608788D1
:10350800BFB227EA040484808C79878894403C43BE
:10351800A4B28480032407689C40E44327400760E2
:1035280007689D403D430560C5682C40C460CC7960
:10353800C5689C402C43C4600132102A03F1020381
:10354800C2D1F0BD038A19420CBF00200120704788
:103558000AB1816170470185704701F00703C90806
:1035680000EB810010B59B00046A0F21994024EA02
:1035780001010162016A9A401143016210BD000015
:1035880008B50B4B984207D14FF40010012100F009
:1035980073FA4FF4001006E04FF48000012100F0A8
:1035A8006BFA4FF480000021BDE8084000F064BACF
:1035B80000540040036823F0010303600268144BC1
:1035C80013408A6843EA02234A681A430B68026078
:1035D80023F07063036103680A6943F00103036021
:1035E80000238360C3608B6913438360836843F45B
:1035F800004383600268CB681343036043684A69E9
:1036080023F0784323F4004313434360704700BF1B
:10361800FFE0CF00036811B143F0010301E023F09C
:10362800010303607047036823F001030360036824
:10363800036843F001030360704730B54568039C95
:1036480025F07F7525F4593525F47F7525F0030598
:103658002C432343C1F3090143EA010444EA02422B
:10366800426030BD81627047406AC0B2704783696A
:1036780019420CBF002001207047C161704700004B
:10368800024B4CF6CC421A60704700BF0030004035
:1036980040F0BF60024B40F40030D860704700BF74
:1036A80000ED00E0C278037810B5FAB1154A447805
:1036B800D268D243C2F30222C2F1040104FA01F132
:1036C8000F2424FA02F2847822400A4303F160436B
:1036D80003F561431201D2B283F800230378012273
:1036E800590903F01F0302FA03F306E059090122FE
:1036F80003F01F0302FA03F32031034A42F8213092
:1037080010BD00BF00ED00E000E100E0114B1A68B9
:1037180042F001021A6059680F4A0A405A601A6852
:1037280022F0847222F480321A601A6822F480220D
:103738001A605A6822F4FE025A60DA6A22F47F524A
:1037480022F03F02DA62196B044A0A401A63002227
:103758009A6070470010024000C0FFF8CCFC000FD0
:10376800034B5A6822F0030210435860704700BFA9
:1037780000100240984B596801F00C0104292DE90A
:10378800F04105D0082906D0944A0260B9B917E07B
:10379800924A026013E05A685C68C2F38342E70306
:1037A80002F1020201D48E4906E0D96A8B4C01F07D
:1037B8000F010131B4FBF1F15143016000E0002138
:1037C8005A68884FDFF82082C2F30312BE5C026891
:1037D800F6B222FA06F545605C68C4F302243C5D43
:1037E80025FA04F48460D3F804C0CCF3C22C17F88B
:1037F8000C70FFB2FD40C560D3F82CC0CCF3041C9C
:1038080038F81CC01FFA8CFC1CF0100F1ABFB1FB53
:10381800FCFCC0F810C00261D3F82CC0CCF3442CD7
:1038280038F81CC01FFA8CFC1CF0100F1ABFB1FB33
:10383800FCFCC0F814C04261D3F830C01CF0100F73
:1038480006BFDFF898C1C0F818C08261D3F830C04D
:103858001CF0200F06BFDFF884C1C0F81CC0C2618D
:10386800D3F830C01CF4807F08D08A4206D1B74212
:1038780004D14FEA420CC0F820C000E00562D3F83A
:1038880030C01CF4007F06D08A4204D1B74202D16E
:103898005100416200E045621E6B4F49B60701D1F5
:1038A800856215E00D6B05F00305012D01D18262DB
:1038B8000EE00D6B05F00305022D02D14FF4004117
:1038C80005E0096B01F00301032901D14349816235
:1038D8001D6B414915F4403F01D1C46218E00D6BDE
:1038E80005F44035B5F5803F01D1C26210E00D6B9B
:1038F80005F44035B5F5003F02D14FF4004106E02C
:10390800096B01F44031B1F5403F01D13349C1623F
:103918001D6B314915F4402F01D1046318E00D6B7C
:1039280005F44025B5F5802F01D1026310E00D6B39
:1039380005F44025B5F5002F02D14FF4004106E00B
:10394800096B01F44021B1F5402F01D123490163EE
:103958001D6B214915F4401F01D1446318E00D6B1C
:1039680005F44015B5F5801F01D1426310E00D6BD9
:1039780005F44015B5F5001F02D14FF4004106E0EB
:10398800096B01F44011B1F5401F01D1134941639E
:103998001B6B114913F4400F02D18463BDE8F08119
:1039A8000B6B03F44003B3F5800F02D18263BDE8CB
:1039B800F0810B6B03F44003B3F5000F02D14FF411
:1039C800004306E00B6B03F44003B3F5400F01D14D
:1039D800024B8363BDE8F0810010024000127A00B8
:1039E80000093D002201002008010020030F064BBA
:1039F8001A6B14BF22F0200222F010021A631A6B0D
:103A080010431863704700BF00100240014B186054
:103A1800704700BFD8004242044B5A6909B11043AD
:103A280001E022EA00005861704700BF0010024020
:103A3800044B9A6909B1104301E022EA0000986139
:103A4800704700BF00100240044BDA6909B1104307
:103A580001E022EA0000D861704700BF0010024070
:103A6800044BDA6809B1104301E022EA0000D8608B
:103A7800704700BF00100240044B1A6909B1104397
:103A880001E022EA00001861704700BF0010024000
:103A9800044B1A6804280CBF42F0040222F0040206
:103AA8001A60704710E000E0014B5860704700BF93
:103AB80010E000E00128084B03D11A6842F0010227
:103AC80004E0023004D11A6822F001021A6070473B
:103AD80000229A60704700BF10E000E0044B1A68AB
:103AE80010B142F0020201E022F002021A607047AF
:103AF80010E000E008B5364B984207D14FF400605B
:103B08000121FFF7ADFF4FF400605BE0B0F1804F9B
:103B180005D101200146FFF7AFFF012007E02D4B3B
:103B2800984209D102200121FFF7A6FF02200021B7
:103B3800BDE80840FFF7A0BF274B984205D10420F5
:103B48000121FFF799FF0420F1E7244B984205D1A2
:103B580010200121FFF790FF1020E8E7204B984242
:103B680005D120200121FFF787FF2020DFE71D4B2B
:103B7800984207D14FF400500121FFF771FF4FF42D
:103B880000501FE0184B984207D14FF480300121B4
:103B9800FFF766FF4FF4803014E0144B984207D1CA
:103BA8004FF400300121FFF75BFF4FF4003009E0CC
:103BB8000F4B98420BD14FF480200121FFF750FFA3
:103BC8004FF480200021BDE80840FFF749BF08BD39
:103BD800002C014000040040000800400010004094
:103BE80000140040003401400040014000440140FE
:103BF80000480140204A038890429BB20ED002F54B
:103C0800006290420AD0B0F1804F07D0A2F59832F6
:103C1800904203D002F58062904203D14A8823F093
:103C280070031343154A904208D002F5806290420F
:103C380004D023F440730A899BB2134303804B6872
:103C4800C3620B8803850C4B98420FD003F50063C1
:103C580098420BD003F54063984207D003F5806380
:103C6800984203D003F58063984201D18B7A03868A
:103C780001234361704700BF002C01400010004041
:103C88004FF0FF3343600023038003814380837236
:103C98007047038819B19BB243F0010303E023F096
:103CA80001031B041B0C038070470000036A23F008
:103CB80001030362036A426830B584690D6824F41D
:103CC800803424F073042C438D8923F002032B43A2
:103CD8008D882B43134DA8420FD005F50065A842E7
:103CE8000BD005F54065A84207D005F58065A842C8
:103CF80003D005F58065A8420DD1CD8923F00803CE
:103D08002B43CD8823F004032B430D8A22F4407201
:103D18002A434D8A2A4342608A6884614263036267
:103D280030BD00BF002C0140036A23F0100303627A
:103D3800036A426870B584690D688E8924F08074BE
:103D480024F4E64444EA052423F020058B88334311
:103D580045EA03130E4DA84203D005F50065A842B5
:103D680010D1CD890E8A23F0800343EA0513CD884C
:103D780023F0400343EA05134D8A22F44062354399
:103D880042EA850242608A6884618263036270BD88
:103D9800002C0140036A23F48073036270B5056A3E
:103DA8004268C3690C688E8923F073031C438B88AF
:103DB80025F40075334345EA03230F4DA84203D089
:103DC80005F50065A84210D1CD890E8A23F4006359
:103DD80043EA0523CD8823F4806343EA05234D8A0B
:103DE80022F44052354342EA051242608A68C461AF
:103DF800C263036270BD00BF002C0140036A0A68F9
:103E080023F48053036270B5056A4368C4698E89D8
:103E180024F4E64444EA02228C8825F4005534430D
:103E280045EA0434084DA84203D005F50065A842C8
:103E380004D10D8A23F4804343EA851343608B68D9
:103E4800C2610364046270BD002C0140002303605A
:103E58008380C38083608381C381038243827047E8
:103E68004163704781637047C1637047016470475D
:103E7800836923F00803194381617047836923F438
:103E8800006343EA012181617047C36923F0080395
:103E98001943C1617047C36923F4006343EA0121F0
:103EA800C1617047436C11B143F4004301E0C3F3AF
:103EB8000E0343647047000008B5204B98420BD1AD
:103EC8004FF480400121FFF7CBFD4FF480400021E3
:103ED800BDE80840FFF7C4BD194B984207D14FF41D
:103EE80000300121FFF7C8FD4FF400301FE0154BEB
:103EF800984207D14FF480200121FFF7BDFD4FF410
:103F0800802014E0104B984207D14FF40020012183
:103F1800FFF7B2FD4FF4002009E00C4B98420BD19B
:103F28004FF480100121FFF7A7FD4FF48010002106
:103F3800BDE80840FFF7A0BD08BD00BF003801403C
:103F48000044004000480040004C00400050004041
:103F5800036823F0010330B5036042688B680D469F
:103F680022F44052134343606A68C96803681143E6
:103F78002A6923F4B0530A4323F00C031343036064
:103F880082686B6922F44072134391B083600446DF
:103F980001A8FFF7EFFB184B9C4201D10B9A0EE0EA
:103FA800164B9C4201D10C9A09E0154B9C4201D159
:103FB8000D9A04E0134B9C420CBF0E9A0F9A23688B
:103FC800296813F4004F18BF5200B2FBF1F301FB4C
:103FD8001322B2EB510F226828BF0133120406D511
:103FE8004FF6F072C3F342011A4041EA02039BB252
:103FF800A38111B030BD00BF00380140004400402B
:1040080000480040004C0040036811B143F0010330
:1040180001E023F0010303607047C1F3072310B5E3
:10402800C9B20124022B04FA01F101D1043002E0E3
:10403800032B08BF083003680AB1194301E023EADB
:104048000101016010BD836823F480538360836895
:1040580019438160704710B5C1F307220124CBB220
:10406800A24204FA03F301D1026803E0022A0CBF5A
:10407800426882681340C26943B10123090C03FAFC
:1040880001F111420CBF0020012010BD184610BDDF
:10409800002100F004B8144B5B5843500431134816
:1040A800134B42189A42FFF4F6AF002100F004B80F
:1040B800104B5B58435004310F48104B42189A423A
:1040C800FFF4F6AF0E4A00F003B8002342F8043BB1
:1040D8000C4B9A42FFF4F9AF00F018F8FFF74EF9CD
:1040E800FFF7FCF87047000060540008000000204B
:1040F8003401002094550008000000105001001001
:1041080000020020A4140020FFF7FEBF394BD3F8AB
:10411800882042F47002C3F88820374B1A6842F0AE
:1041280001021A605968354A0A405A601A6822F032
:10413800847222F480321A601A6822F480221A608B
:104148005A6822F4FE025A60DA6A22F00F02DA6232
:10415800196B2B4A82B00A401A6300229A600092B7
:1041680001921A6842F480321A601A6802F4003226
:104178000192009A01320092019A1AB9009AB2F596
:10418800A06FF2D11A6812F4003218BF012201920E
:10419800019A012A05D0174B4FF000629A6002B0CD
:1041A8007047184A122111605A685A605A685A6052
:1041B8005A6842F480625A605A6822F47C125A6043
:1041C8005A6842F4E8125A601A6842F080721A601B
:1041D8001968094A8901FBD5516821F0030151602A
:1041E800516841F0020151605A6802F00C02082A35
:1041F800FAD1D0E700ED00E0001002400CC07FF8D3
:10420800CCFC00FF00200240F0B4840743D0541EC9
:10421800002A3ED0CDB2034603E0621E002C38D0FF
:10422800144603F8015B9A07F7D1032C2AD9CDB2BB
:1042380045EA05250F2C45EA054515D9A4F11007CF
:104248003F0903F1100606EB07161A46156055607C
:104258009560D5601032B242F8D104F00F040137EE
:10426800032C03EB07130DD91E462246043A032AF2
:1042780046F8045BFAD8221F22F0030204321344E2
:1042880004F003042CB1C9B21C4403F8011BA34277
:10429800FBD1F0BC704714460346C6E7260353001B
:1042A80054004D006900630072006F0065006C00E7
:1042B80065006300740072006F006E00690063009F
:1042C80073001201000202000040830440570002FC
:1042D80001020301040309043203530054004D0092
:1042E8003300320020005600690072007400750027
:1042F80061006C00200043004F004D00200050007A
:104308006F007200740020002000090243000201BF
:1043180000C0320904000001020201000524001057
:1043280001052401000104240202052406000107F6
:104338000582030800FF09040100020A00000007C3
:10434800050302400000070581024000000000004C
:10435800F5320008F9320008FD3200084133000840
:104368004533000847330008493300084B33000839
:104378004D3300084F330008FF7F6480C8802D81CB
:104388009181F6815A82BF8223838883EC8351848A
:10439800B5841A857E85E2854786AB861087748743
:1043A800D8873D88A18805896989CE89328A968A05
:1043B800FA8A5E8BC38B278C8B8CEF8C538DB78DD1
:1043C8001B8E7F8EE28E468FAA8F0E907190D590AD
:1043D80039919C9100926392C7922A938E93F1939C
:1043E8005494B8941B957E95E1954496A7960A97A0
:1043F8006D97CF9732989598F8985A99BD991F9AC2
:10440800819AE49A469BA89B0A9C6C9CCE9C309D02
:10441800929DF49D569EB79E199F7A9FDC9F3DA062
:104428009EA0FFA060A1C1A122A283A2E4A245A3ED
:10443800A5A306A466A4C7A427A587A5E7A547A69C
:10444800A7A607A766A7C6A725A885A8E4A843A97D
:10445800A2A901AA60AABFAA1EAB7CABDBAB39AC90
:1044680098ACF6AC54ADB2AD10AE6DAECBAE29AFD4
:1044780086AFE3AF40B09DB0FAB057B1B4B110B257
:104488006DB2C9B225B382B3DEB339B495B4F1B411
:104498004CB5A7B503B65EB6B9B614B76EB7C9B70B
:1044A80023B87DB8D8B832B98BB9E5B93FBA98BA4C
:1044B800F1BA4BBBA4BBFDBB55BCAEBC06BD5FBDD2
:1044C800B7BD0FBE67BEBEBE16BF6DBFC4BF1CC0A2
:1044D80072C0C9C020C176C1CDC123C279C2CFC2C2
:1044E80024C37AC3CFC324C479C4CEC423C577C533
:1044F800CCC520C674C6C8C61BC76FC7C2C715C8F7
:1045080068C8BBC80EC960C9B3C905CA57CAA8CA12
:10451800FACA4BCB9CCBEDCB3ECC8FCCDFCC30CD8D
:1045280080CDD0CD1FCE6FCEBECE0DCF5CCFABCF62
:10453800FACF48D096D0E4D032D180D1CDD11AD29A
:1045480067D2B4D201D34DD39AD3E6D331D47DD434
:10455800C8D414D55FD5A9D5F4D53ED689D6D2D638
:104568001CD766D7AFD7F8D741D88AD8D2D81BD9A5
:1045780063D9ABD9F2D93ADA81DAC8DA0EDB55DB7E
:104588009BDBE1DB27DC6DDCB2DCF8DC3DDD81DDCB
:10459800C6DD0ADE4EDE92DED6DE19DF5CDF9FDF87
:1045A800E2DF24E067E0A9E0EAE02CE16DE1AEE1BA
:1045B800EFE130E270E2B0E2F0E230E36FE3AEE365
:1045C800EDE32CE46BE4A9E4E7E424E562E59FE588
:1045D800DCE519E655E692E6CEE609E745E780E729
:1045E800BBE7F6E731E86BE8A5E8DFE818E951E949
:1045F8008AE9C3E9FCE934EA6CEAA3EADBEA12EBEC
:1046080049EB80EBB6EBECEB22EC58EC8DECC2EC12
:10461800F7EC2CED60ED94EDC8EDFCED2FEE62EEBD
:1046280095EEC7EEFAEE2BEF5DEF8FEFC0EFF1EFEF
:1046380021F052F082F0B1F0E1F010F13FF16EF1AB
:104648009CF1CAF1F8F126F253F280F2ADF2DAF2F7
:1046580006F332F35DF389F3B4F3DFF309F434F4CA
:104668005EF487F4B1F4DAF403F52CF554F57CF52F
:10467800A4F5CBF5F2F519F640F666F68CF6B2F627
:10468800D7F6FDF621F746F76AF78EF7B2F7D6F7B1
:10469800F9F71CF83EF861F883F8A4F8C6F8E7F8CB
:1046A80008F928F949F969F988F9A8F9C7F9E5F97C
:1046B80004FA22FA40FA5EFA7BFA98FAB5FAD1FAC5
:1046C800EDFA09FB25FB40FB5BFB76FB90FBAAFBA5
:1046D800C4FBDDFBF7FB0FFC28FC40FC58FC70FC1E
:1046E80087FC9EFCB5FCCCFCE2FCF8FC0DFD23FD30
:1046F80038FD4CFD61FD75FD88FD9CFDAFFDC2FDDB
:10470800D4FDE7FDF9FD0AFE1CFE2DFE3DFE4EFE22
:104718005EFE6EFE7DFE8CFE9BFEAAFEB8FEC6FE09
:10472800D4FEE1FEEEFEFBFE08FF14FF20FF2BFF88
:1047380036FF41FF4CFF56FF60FF6AFF73FF7CFFA7
:1047480085FF8EFF96FF9EFFA5FFACFFB3FFBAFF64
:10475800C0FFC6FFCCFFD1FFD7FFDBFFE0FFE4FFC0
:10476800E8FFEBFFEFFFF2FFF4FFF6FFF8FFFAFFB9
:10477800FCFFFDFFFDFFFEFFFEFFFEFFFDFFFDFF4F
:10478800FCFFFAFFF8FFF6FFF4FFF2FFEFFFEBFF85
:10479800E8FFE4FFE0FFDBFFD7FFD1FFCCFFC6FF58
:1047A800C0FFBAFFB3FFACFFA5FF9EFF96FF8EFFC9
:1047B80085FF7CFF73FF6AFF60FF56FF4CFF41FFD8
:1047C80036FF2BFF20FF14FF08FFFBFEEEFEE1FE85
:1047D800D4FEC6FEB8FEAAFE9BFE8CFE7DFE6EFED3
:1047E8005EFE4EFE3DFE2DFE1CFE0AFEF9FDE7FDB7
:1047F800D4FDC2FDAFFD9CFD88FD75FD61FD4CFD3E
:1048080038FD23FD0DFDF8FCE2FCCCFCB5FC9EFC5C
:1048180087FC70FC58FC40FC28FC0FFCF7FBDDFB18
:10482800C4FBAAFB90FB76FB5BFB40FB25FB09FB6B
:10483800EDFAD1FAB5FA98FA7BFA5EFA40FA22FA5A
:1048480004FAE5F9C7F9A8F988F969F949F928F9DD
:1048580008F9E7F8C6F8A4F883F861F83EF81CF8F8
:10486800F9F7D6F7B2F78EF76AF746F721F7FDF6AC
:10487800D7F6B2F68CF666F640F619F6F2F5CBF5F1
:10488800A4F57CF554F52CF503F5DAF4B1F487F4C6
:104898005EF434F409F4DFF3B4F389F35DF332F32F
:1048A80006F3DAF2ADF280F253F226F2F8F1CAF129
:1048B8009CF16EF13FF110F1E1F0B1F082F052F0AD
:1048C80021F0F1EFC0EF8FEF5DEF2BEFFAEEC7EEBF
:1048D80095EE62EE2FEEFCEDC8ED94ED60ED2CED5B
:1048E800F7ECC2EC8DEC58EC22ECECEBB6EB80EB81
:1048F80049EB12EBDBEAA3EA6CEA34EAFCE9C3E928
:104908008AE951E918E9DFE8A5E86BE831E8F6E754
:10491800BBE780E745E709E7CEE692E655E619E604
:10492800DCE59FE562E524E5E7E4A9E46BE42CE433
:10493800EDE3AEE36FE330E3F0E2B0E270E230E2E1
:10494800EFE1AEE16DE12CE1EAE0A9E067E024E007
:10495800E2DF9FDF5CDF19DFD6DE92DE4EDE0ADEA5
:10496800C6DD81DD3DDDF8DCB2DC6DDC27DCE1DBBA
:104978009BDB55DB0EDBC8DA81DA3ADAF2D9ABD940
:1049880063D91BD9D2D88AD841D8F8D7AFD766D738
:104998001CD7D2D689D63ED6F4D5A9D55FD514D59D
:1049A800C8D47DD431D4E6D39AD34DD301D3B4D26D
:1049B80067D21AD2CDD180D132D1E4D096D048D0A6
:1049C800FACFABCF5CCF0DCFBECE6FCE1FCED0CD42
:1049D80080CD30CDDFCC8FCC3ECCEDCB9CCB4BCB40
:1049E800FACAA8CA57CA05CAB3C960C90EC9BBC89A
:1049F80068C815C8C2C76FC71BC7C8C674C620C653
:104A0800CCC577C523C5CEC479C424C4CFC37AC363
:104A180024C3CFC279C223C2CDC176C120C1C9C0C7
:104A280072C01CC0C4BF6DBF16BFBEBE67BE0FBE7E
:104A3800B7BD5FBD06BDAEBC55BCFDBBA4BB4BBB83
:104A4800F1BA98BA3FBAE5B98BB932B9D8B87DB8D6
:104A580023B8C9B76EB714B7B9B65EB603B6A7B56B
:104A68004CB5F1B495B439B4DEB382B325B3C9B249
:104A78006DB210B2B4B157B1FAB09DB040B0E3AF67
:104A880086AF29AFCBAE6DAE10AEB2AD54ADF6ACBD
:104A980098AC39ACDBAB7CAB1EABBFAA60AA01AA51
:104AA800A2A943A9E4A885A825A8C6A766A707A719
:104AB800A7A647A6E7A587A527A5C7A466A406A411
:104AC800A5A345A3E4A283A222A2C1A160A1FFA03D
:104AD8009EA03DA0DC9F7A9F199FB79E569EF49D8D
:104AE800929D309DCE9C6C9C0A9CA89B469BE49A08
:104AF800819A1F9ABD995A99F89895983298CF97A4
:104B08006D970A97A7964496E1957E951B95B8945C
:104B18005494F1938E932A93C792639200929C9136
:104B28003991D59071900E90AA8F468FE28E7F8E24
:104B38001B8EB78D538DEF8C8B8C278CC38B5E8B24
:104B4800FA8A968A328ACE8969890589A1883D8838
:104B5800D88774871087AB864786E2857E851A8555
:104B6800B5845184EC8388832383BF825A82F6817B
:104B780091812D81C8806480FF7F9A7F367FD17EA6
:104B88006D7E087EA47D3F7DDB7C767C127CAD7BD0
:104B9800497BE47A807A1C7AB7795379EE788A78F7
:104BA8002678C1775D77F97695763076CC75687515
:104BB8000475A0743B74D77373730F73AB72477229
:104BC800E3717F711C71B8705470F06F8D6F296F2D
:104BD800C56E626EFE6D9B6D376DD46C706C0D6C1E
:104BE800AA6B466BE36A806A1D6ABA695769F468FA
:104BF80091682F68CC6769670667A4664166DF65B8
:104C08007D651A65B8645664F46392633063CE6256
:104C18006C620A62A8614761E56084602260C15FD6
:104C2800605FFF5E9E5E3D5EDC5D7B5D1A5DB95C2C
:104C3800595CF85B985B375BD75A775A175AB7595C
:104C48005759F75898583858D95779571A57BB565B
:104C58005C56FD559E553F55E05482542354C55328
:104C680066530853AA524C52EE5191513351D550C4
:104C780078501B50BE4F614F044FA74E4A4EEE4D21
:104C8800914D354DD94C7C4C204CC54B694B0D4B47
:104C9800B24A574AFB49A0494549EA48904835482D
:104CA800DB4781472647CC4673461946BF456645CC
:104CB8000D45B3445A440144A9435043F8429F4226
:104CC8004742EF4197414041E84091403A40E23F36
:104CD8008C3F353FDE3E883E313EDB3D853D2F3DF6
:104CE800DA3C843C2F3CDA3B853B303BDB3A873A65
:104CF800323ADE398A393639E3388F383C38E93781
:104D080096374337F0369E364B36F935A735563544
:104D18000435B33462341134C0336F331F33CE32A9
:104D28007E322E32DF318F314031F130A2305330B4
:104D38000430B62F682F1A2FCC2E7E2E312EE42D5C
:104D4800972D4A2DFD2CB12C642C182CCD2B812BA2
:104D5800362BEA2A9F2A552A0A2AC02975292C297E
:104D6800E22898284F280628BD2774272C27E326F1
:104D78009B2653260C26C4257D253625F024A924F8
:104D880063241D24D72391234C230623C1227D228B
:104D98003822F421B0216C212821E520A2205F20AF
:104DA8001C20DA1F971F551F141FD21E911E501E5C
:104DB8000F1ECE1D8E1D4E1D0E1DCE1C8F1C501C91
:104DC800111CD21B931B551B171BDA1A9C1A5F1A4E
:104DD800221AE519A9196C193019F518B9187E188D
:104DE80043180818CD17931759171F17E616AD164D
:104DF80074163B160216CA1592155B152315EC148A
:104E0800B5147E1448141214DC13A61371133C1342
:104E18000713D2129E126A1236120212CF119C1177
:104E2800691137110411D310A1106F103E100D1025
:104E3800DD0FAC0F7C0F4D0F1D0FEE0EBF0E900E49
:104E4800620E340E060ED80DAB0D7E0D510D240DDD
:104E5800F80CCC0CA10C750C4A0C1F0CF50BCA0BEA
:104E6800A00B770B4D0B240BFB0AD20AAA0A820A65
:104E78005A0A330A0C0AE509BE09980972094C094D
:104E880027090109DD08B808940870084C082808A3
:104E98000508E207C0079D077B075A073807170769
:104EA800F606D606B5069506760656063706190698
:104EB800FA05DC05BE05A0058305660549052D052F
:104EC8001105F504D904BE04A30488046E0454042F
:104ED8003A0421040704EF03D603BE03A6038E0396
:104EE80077036003490332031C030603F102DB0264
:104EF800C602B2029D028902760262024F023C0299
:104F08002A0217020502F401E201D101C101B00130
:104F1800A001900181017201630154014601380129
:104F28002A011D0110010301F600EA00DE00D3008A
:104F3800C800BD00B200A8009E0094008B0082004B
:104F48007900700068006000590052004B0044006E
:104F58003E00380032002D00270023001E001A00F2
:104F6800160013000F000C000A00080006000400D9
:104F78000200010001000000000000000100010023
:104F880002000400060008000A000C000F001300CD
:104F980016001A001E00230027002D0032003800DA
:104FA8003E0044004B005200590060006800700049
:104FB800790082008B0094009E00A800B200BD001A
:104FC800C800D300DE00EA00F600030110011D014D
:104FD8002A013801460154016301720181019001DF
:104FE800A001B001C101D101E201F40105021702DB
:104FF8002A023C024F026202760289029D02B20234
:10500800C602DB02F10206031C03320349036003F4
:1050180077038E03A603BE03D603EF030704210418
:105028003A0454046E048804A304BE04D904F504A5
:1050380011052D05490566058305A005BE05DC0596
:10504800FA0519063706560676069506B506D606F3
:10505800F606170738075A077B079D07C007E207B8
:10506800050828084C0870089408B808DD080109E4
:1050780027094C0972099809BE09E5090C0A330A7F
:105088005A0A820AAA0AD20AFB0A240B4D0B770B8A
:10509800A00BCA0BF50B1F0C4A0C750CA10CCC0C01
:1050A800F80C240D510D7E0DAB0DD80D060E340EE7
:1050B800620E900EBF0EEE0E1D0F4D0F7C0FAC0F43
:1050C800DD0F0D103E106F10A110D3100411371111
:1050D80069119C11CF11021236126A129E12D21255
:1050E80007133C137113A613DC13121448147E140F
:1050F800B514EC1423155B159215CA1502163B1648
:105108007416AD16E6161F1759179317CD170818FA
:1051180043187E18B918F51830196C19A919E5192A
:10512800221A5F1A9C1ADA1A171B551B931BD21BDB
:10513800111C501C8F1CCE1C0E1D4E1D8E1DCE1D0D
:105148000F1E501E911ED21E141F551F971FDA1FC7
:105158001C205F20A220E52028216C21B021F42109
:1051680038227D22C12206234C239123D7231D24D4
:105178006324A924F02436257D25C4250C2653262E
:105188009B26E3262C277427BD2706284F28982816
:10519800E2282C297529C0290A2A552A9F2AEA2A91
:1051A800362B812BCD2B182C642CB12CFD2C4A2DA1
:1051B800972DE42D312E7E2ECC2E1A2F682FB62F48
:1051C80004305330A230F13040318F31DF312E328C
:1051D8007E32CE321F336F33C03311346234B3346E
:1051E80004355635A735F9354B369E36F0364337F4
:1051F8009637E9373C388F38E33836398A39DE391B
:10520800323A873ADB3A303B853BDA3B2F3C843CE9
:10521800DA3C2F3D853DDB3D313E883EDE3E353F65
:105228008C3FE23F3A409140E84040419741EF418E
:1052380047429F42F8425043A94301445A44B34469
:105248000D456645BF4519467346CC4626478147F6
:10525800DB4735489048EA484549A049FB49574A41
:10526800B24A0D4B694BC54B204C7C4CD94C354D43
:10527800914DEE4D4A4EA74E044F614FBE4F1B5005
:105288007850D55033519151EE514C52AA5208538F
:105298006653C55323548254E0543F559E55FD55DB
:1052A8005C56BB561A577957D95738589858F758F3
:1052B8005759B759175A775AD75A375B985BF85BDB
:1052C800595CB95C1A5D7B5DDC5D3D5E9E5EFF5E90
:1052D800605FC15F22608460E5604761A8610A621F
:1052E8006C62CE6230639263F4635664B8641A6584
:1052F8007D65DF654166A46606676967CC672F68C8
:105308009168F4685769BA691D6A806AE36A466BEE
:10531800AA6B0D6C706CD46C376D9B6DFE6D626EF4
:10532800C56E296F8D6FF06F5470B8701C717F71E6
:10533800E3714772AB720F737373D7733B74A074C6
:1053480004756875CC7530769576F9765D77C17792
:1053580026788A78EE785379B7791C7A807AE47A55
:10536800497BAD7B127C767CDB7C3F7DA47D087E0F
:105378006D7ED17E367F9A7F00E1000000960000A6
:10538800004B00008025000000E80300000000003A
:1053980000000000000000009525000855250008C1
:1053A8003D2600086125000873250008112600081D
:1053B80087250008000000000002090000000048DE
:1053C80000000200070000040A0000000000004876
:1053D800000002000700000000380140250000001E
:1053E8000000000000000000932800083128000891
:1053F800652800083D2800084F280008C72800082D
:08540800632800080000000009
:10541000054B064A1B680648926803FB00000923F7
:10542000B2FBF3F3C01A70475802002010E000E00E
:1054300040420F00044B1A6801321A60034B1A688D
:1054400001321A60704700BF580200205402002049
:10545000791800084525000821280008352A000889
:105460001A03530054004D003300320000000000C6
:105470000000000000000000000000000904000817
:10548000AD110008AD110008AD110008AD11000804
:10549000AD110008AD110008AD110008AD110008F4
:1054A00045040008AD110008AD110008AD11000859
:1054B000AD1100081243000843000000FD0600087B
:1054C0002107000825060008390600083D060008E7
:1054D00099060008BD06000809080008150800081C
:1054E000210800080000000040000000AD11000885
:1054F00001060008AD110008AD110008AD1100084B
:10550000AD110008AD110008AD1100081906000822
:10551000CA42000812000000DC420008040000003B
:10552000A442000826000000E0420008320000000B
:10553000000000201A00000000C201000000080066
:105540000401010038020020440200202C02002047
:1055500010040810010204050608090A10270000BB
:10556000FF000000102700000000010002000400FE
:10557000060008000A000C00100020004000800017
:1055800000010000000001020304010203040607F9
:045590000809000006
:1055940038B5364B36494FF4077404FB0034A3681E
:1055A4001D6A284600F07CF878B3A98CEB699A0749
:1055B40089B211D1B4F81632B4F814229BB2013373
:1055C400DBB292B293421CD0B4F8162214FA82F2DF
:1055D4001174A4F8163218E0EB69DB0702D494F8CE
:1055E400183273B994F81832234493F8193243B932
:1055F40094F8183283F0010384F81832204600F03E
:1056040057F81C4B1A8801321A8028461A4900F0B0
:1056140047F848B3B4F81022B4F8123292B29BB2ED
:105624009A4212D0B4F8123214FA83F393F8103178
:105634002B85B4F812329BB201339BB2A4F8123218
:10564400B4F81232DBB2A4F81232B4F81222B4F86D
:10565400103292B29BB29A4206D1284606490022E1
:10566400BDE8384000F014B838BD00BF740600200F
:105674000501050022020020070107000020FFF7B2
:1056840087BF00BF00F024B8122000F019B8000052
:1056940001B40248844601BC604700BF23400008AF
:1056A40001B40248844601BC604700BF5F40000863
:1056B40001B40248844601BC604700BFAD2600081F
:1056C40001B40248844601BC604700BFB1340008FD
:1056D40001B40248844601BC604700BF910400083D
:040000050800409916
:00000001FF
